{"contracts/SynthFactory.sol":{"SynthFactory":{"abi":[{"inputs":[{"internalType":"address","name":"initialOwner","type":"address"},{"internalType":"address","name":"vaultAddress","type":"address"}],"stateMutability":"nonpayable","type":"constructor"},{"inputs":[{"internalType":"address","name":"owner","type":"address"}],"name":"OwnableInvalidOwner","type":"error"},{"inputs":[{"internalType":"address","name":"account","type":"address"}],"name":"OwnableUnauthorizedAccount","type":"error"},{"anonymous":false,"inputs":[{"indexed":true,"internalType":"address","name":"previousOwner","type":"address"},{"indexed":true,"internalType":"address","name":"newOwner","type":"address"}],"name":"OwnershipTransferred","type":"event"},{"anonymous":false,"inputs":[{"indexed":true,"internalType":"address","name":"synthContract","type":"address"},{"indexed":false,"internalType":"string","name":"name","type":"string"},{"indexed":false,"internalType":"string","name":"symbol","type":"string"},{"indexed":false,"internalType":"uint8","name":"decimals","type":"uint8"},{"indexed":true,"internalType":"address","name":"vaultAddress","type":"address"},{"indexed":false,"internalType":"address","name":"adminForSynth","type":"address"}],"name":"SynthCreated","type":"event"},{"inputs":[{"internalType":"uint256","name":"","type":"uint256"}],"name":"allSynths","outputs":[{"internalType":"address","name":"","type":"address"}],"stateMutability":"view","type":"function"},{"inputs":[{"internalType":"string","name":"name","type":"string"},{"internalType":"string","name":"symbol","type":"string"},{"internalType":"uint8","name":"decimals_","type":"uint8"}],"name":"createSynth","outputs":[{"internalType":"address","name":"synthContractAddress","type":"address"}],"stateMutability":"nonpayable","type":"function"},{"inputs":[],"name":"getAllSynthsCount","outputs":[{"internalType":"uint256","name":"","type":"uint256"}],"stateMutability":"view","type":"function"},{"inputs":[{"internalType":"uint256","name":"index","type":"uint256"}],"name":"getSynthAtIndex","outputs":[{"internalType":"address","name":"","type":"address"}],"stateMutability":"view","type":"function"},{"inputs":[{"internalType":"string","name":"symbol","type":"string"}],"name":"getSynthBySymbol","outputs":[{"internalType":"address","name":"","type":"address"}],"stateMutability":"view","type":"function"},{"inputs":[],"name":"owner","outputs":[{"internalType":"address","name":"","type":"address"}],"stateMutability":"view","type":"function"},{"inputs":[],"name":"renounceOwnership","outputs":[],"stateMutability":"nonpayable","type":"function"},{"inputs":[{"internalType":"string","name":"","type":"string"}],"name":"synthBySymbol","outputs":[{"internalType":"address","name":"","type":"address"}],"stateMutability":"view","type":"function"},{"inputs":[{"internalType":"address","name":"newOwner","type":"address"}],"name":"transferOwnership","outputs":[],"stateMutability":"nonpayable","type":"function"},{"inputs":[],"name":"vault","outputs":[{"internalType":"contract Vault","name":"","type":"address"}],"stateMutability":"view","type":"function"}],"evm":{"bytecode":{"linkReferences":{},"object":"60a060405234801561001057600080fd5b5060405161224b38038061224b83398101604081905261002f91610150565b816001600160a01b03811661005f57604051631e4fbdf760e01b8152600060048201526024015b60405180910390fd5b610068816100e4565b506001600160a01b0381166100d25760405162461bcd60e51b815260206004820152602a60248201527f53796e7468466163746f72793a205661756c7420616464726573732063616e6e6044820152696f74206265207a65726f60b01b6064820152608401610056565b6001600160a01b031660805250610183565b600080546001600160a01b038381166001600160a01b0319831681178455604051919092169283917f8be0079c531659141344cd1fd0a4f28419497f9722a3daafe3b4186f6b6457e09190a35050565b80516001600160a01b038116811461014b57600080fd5b919050565b6000806040838503121561016357600080fd5b61016c83610134565b915061017a60208401610134565b90509250929050565b6080516120986101b360003960008181610184015281816103890152818161047301526104d301526120986000f3fe608060405234801561001057600080fd5b506004361061009e5760003560e01c80638da5cb5b116100665780638da5cb5b14610137578063d9a07bc914610148578063dddde17a1461015b578063f2fde38b1461016c578063fbfa77cf1461017f57600080fd5b806314cd6c6d146100a35780632584b3aa146100f4578063715018a614610107578063734d7a0e146101115780638d015d2214610124575b600080fd5b6100d76100b136600461072e565b80516020818301810180516001825292820191909301209152546001600160a01b031681565b6040516001600160a01b0390911681526020015b60405180910390f35b6100d7610102366004610830565b6101a6565b61010f610551565b005b6100d761011f3660046108bf565b610565565b6100d76101323660046108bf565b6105f1565b6000546001600160a01b03166100d7565b6100d76101563660046108d8565b61061b565b6002546040519081526020016100eb565b61010f61017a36600461091a565b610650565b6100d77f000000000000000000000000000000000000000000000000000000000000000081565b60006101b061068e565b60006001600160a01b0316600185856040516101cd92919061094a565b908152604051908190036020019020546001600160a01b0316146102445760405162461bcd60e51b815260206004820152602360248201527f53796e7468466163746f72793a2053796d626f6c20616c72656164792065786960448201526273747360e81b60648201526084015b60405180910390fd5b8461029c5760405162461bcd60e51b815260206004820152602260248201527f53796e7468466163746f72793a204e616d652063616e6e6f7420626520656d70604482015261747960f01b606482015260840161023b565b826102f55760405162461bcd60e51b8152602060048201526024808201527f53796e7468466163746f72793a2053796d626f6c2063616e6e6f7420626520656044820152636d70747960e01b606482015260840161023b565b60008260ff1611801561030c575060128260ff1611155b6103705760405162461bcd60e51b815260206004820152602f60248201527f53796e7468466163746f72793a20446563696d616c73206d757374206265206260448201526e0cae8eecacadc406240c2dcc840627608b1b606482015260840161023b565b600080546001600160a01b0316905060008787878787867f00000000000000000000000000000000000000000000000000000000000000006040516103b49061070b565b6103c49796959493929190610983565b604051809103906000f0801580156103e0573d6000803e3d6000fd5b50905080925082600187876040516103f992919061094a565b90815260405190819003602001812080546001600160a01b039384166001600160a01b031991821617909155600280546001810182556000919091527f405787fa12a823e0f2b7631cc41b3ba8828b3321ca811111fa75cd3aa3bb5ace0180548785169216821790556356729cc560e11b825260048201527f00000000000000000000000000000000000000000000000000000000000000009091169063ace5398a90602401600060405180830381600087803b1580156104b957600080fd5b505af11580156104cd573d6000803e3d6000fd5b505050507f00000000000000000000000000000000000000000000000000000000000000006001600160a01b0316836001600160a01b03167f4048353daeac164bd3c491159fc34428025f0bd6dec64fb19ed1faf812a0d9bb8a8a8a8a8a8960405161053e969594939291906109d7565b60405180910390a3505095945050505050565b61055961068e565b61056360006106bb565b565b60025460009082106105c35760405162461bcd60e51b815260206004820152602160248201527f53796e7468466163746f72793a20496e646578206f7574206f6620626f756e646044820152607360f81b606482015260840161023b565b600282815481106105d6576105d6610a25565b6000918252602090912001546001600160a01b031692915050565b6002818154811061060157600080fd5b6000918252602090912001546001600160a01b0316905081565b60006001838360405161062f92919061094a565b908152604051908190036020019020546001600160a01b0316905092915050565b61065861068e565b6001600160a01b03811661068257604051631e4fbdf760e01b81526000600482015260240161023b565b61068b816106bb565b50565b6000546001600160a01b031633146105635760405163118cdaa760e01b815233600482015260240161023b565b600080546001600160a01b038381166001600160a01b0319831681178455604051919092169283917f8be0079c531659141344cd1fd0a4f28419497f9722a3daafe3b4186f6b6457e09190a35050565b61162780610a3c83390190565b634e487b7160e01b600052604160045260246000fd5b60006020828403121561074057600080fd5b813567ffffffffffffffff81111561075757600080fd5b8201601f8101841361076857600080fd5b803567ffffffffffffffff81111561078257610782610718565b604051601f8201601f19908116603f0116810167ffffffffffffffff811182821017156107b1576107b1610718565b6040528181528282016020018610156107c957600080fd5b81602084016020830137600091810160200191909152949350505050565b60008083601f8401126107f957600080fd5b50813567ffffffffffffffff81111561081157600080fd5b60208301915083602082850101111561082957600080fd5b9250929050565b60008060008060006060868803121561084857600080fd5b853567ffffffffffffffff81111561085f57600080fd5b61086b888289016107e7565b909650945050602086013567ffffffffffffffff81111561088b57600080fd5b610897888289016107e7565b909450925050604086013560ff811681146108b157600080fd5b809150509295509295909350565b6000602082840312156108d157600080fd5b5035919050565b600080602083850312156108eb57600080fd5b823567ffffffffffffffff81111561090257600080fd5b61090e858286016107e7565b90969095509350505050565b60006020828403121561092c57600080fd5b81356001600160a01b038116811461094357600080fd5b9392505050565b8183823760009101908152919050565b81835281816020850137506000828201602090810191909152601f909101601f19169091010190565b60a08152600061099760a08301898b61095a565b82810360208401526109aa81888a61095a565b60ff96909616604084015250506001600160a01b0392831660608201529116608090910152949350505050565b6080815260006109eb60808301888a61095a565b82810360208401526109fe81878961095a565b60ff95909516604084015250506001600160a01b0391909116606090910152949350505050565b634e487b7160e01b600052603260045260246000fdfe608060405234801561001057600080fd5b5060405161162738038061162783398101604081905261002f916103bd565b8484600361003d83826104e9565b50600461004a82826104e9565b5050506001600160a01b0382166100c15760405162461bcd60e51b815260206004820152603060248201527f53796e746845524332303a20496e697469616c2061646d696e2063616e6e6f7460448201526f206265207a65726f206164647265737360801b60648201526084015b60405180910390fd5b6001600160a01b0381166101305760405162461bcd60e51b815260206004820152603060248201527f53796e746845524332303a204d696e7465722f4275726e65722063616e6e6f7460448201526f206265207a65726f206164647265737360801b60648201526084016100b8565b6007805460ff191660ff851617905561014a6000836101ab565b506101757f9f2df0fed2c77648de5860a4cc508cd0818c85b8b8a1ab4ceeef8d981c8956a6826101ab565b506101a07f3c11d16cbaffd01df69ce1c404f6340ee057498f5f00246190ea54220576a848826101ab565b5050505050506105a7565b6000806101b884846101e3565b905080156101da5760008481526006602052604090206101d89084610291565b505b90505b92915050565b60008281526005602090815260408083206001600160a01b038516845290915281205460ff166102895760008381526005602090815260408083206001600160a01b03861684529091529020805460ff191660011790556102413390565b6001600160a01b0316826001600160a01b0316847f2f8788117e7eff1d82e926ec794901d17c78024a50270940304540a733656f0d60405160405180910390a45060016101dd565b5060006101dd565b60006101da836001600160a01b0384166000818152600183016020526040812054610289575081546001818101845560008481526020808220909301849055845484825282860190935260409020919091556101dd565b634e487b7160e01b600052604160045260246000fd5b600082601f83011261030f57600080fd5b81516001600160401b03811115610328576103286102e8565b604051601f8201601f19908116603f011681016001600160401b0381118282101715610356576103566102e8565b60405281815283820160200185101561036e57600080fd5b60005b8281101561038d57602081860181015183830182015201610371565b506000918101602001919091529392505050565b80516001600160a01b03811681146103b857600080fd5b919050565b600080600080600060a086880312156103d557600080fd5b85516001600160401b038111156103eb57600080fd5b6103f7888289016102fe565b602088015190965090506001600160401b0381111561041557600080fd5b610421888289016102fe565b945050604086015160ff8116811461043857600080fd5b9250610446606087016103a1565b9150610454608087016103a1565b90509295509295909350565b600181811c9082168061047457607f821691505b60208210810361049457634e487b7160e01b600052602260045260246000fd5b50919050565b601f8211156104e457806000526020600020601f840160051c810160208510156104c15750805b601f840160051c820191505b818110156104e157600081556001016104cd565b50505b505050565b81516001600160401b03811115610502576105026102e8565b610516816105108454610460565b8461049a565b6020601f82116001811461054a57600083156105325750848201515b600019600385901b1c1916600184901b1784556104e1565b600084815260208120601f198516915b8281101561057a578785015182556020948501946001909201910161055a565b50848210156105985786840151600019600387901b60f8161c191681555b50505050600190811b01905550565b611071806105b66000396000f3fe608060405234801561001057600080fd5b50600436106101585760003560e01c806370a08231116100c3578063a3246ad31161007c578063a3246ad314610309578063a9059cbb14610329578063ca15c8731461033c578063d53913931461034f578063d547741f14610376578063dd62ed3e1461038957600080fd5b806370a082311461027f57806379cc6790146102a85780639010d07c146102bb57806391d14854146102e657806395d89b41146102f9578063a217fddf1461030157600080fd5b8063282c51f311610115578063282c51f3146101f55780632f2ff15d1461021c578063313ce5671461023157806336568abe1461024657806340c10f191461025957806342966c681461026c57600080fd5b806301ffc9a71461015d57806306fdde0314610185578063095ea7b31461019a57806318160ddd146101ad57806323b872dd146101bf578063248a9ca3146101d2575b600080fd5b61017061016b366004610da6565b6103c2565b60405190151581526020015b60405180910390f35b61018d6103ed565b60405161017c9190610dd0565b6101706101a8366004610e3a565b61047f565b6002545b60405190815260200161017c565b6101706101cd366004610e64565b610497565b6101b16101e0366004610ea1565b60009081526005602052604090206001015490565b6101b17f3c11d16cbaffd01df69ce1c404f6340ee057498f5f00246190ea54220576a84881565b61022f61022a366004610eba565b6104bb565b005b60075460405160ff909116815260200161017c565b61022f610254366004610eba565b6104e6565b61022f610267366004610e3a565b61051e565b61022f61027a366004610ea1565b610552565b6101b161028d366004610ee6565b6001600160a01b031660009081526020819052604090205490565b61022f6102b6366004610e3a565b61055f565b6102ce6102c9366004610f01565b610593565b6040516001600160a01b03909116815260200161017c565b6101706102f4366004610eba565b6105b2565b61018d6105dd565b6101b1600081565b61031c610317366004610ea1565b6105ec565b60405161017c9190610f23565b610170610337366004610e3a565b610606565b6101b161034a366004610ea1565b610614565b6101b17f9f2df0fed2c77648de5860a4cc508cd0818c85b8b8a1ab4ceeef8d981c8956a681565b61022f610384366004610eba565b61062b565b6101b1610397366004610f6f565b6001600160a01b03918216600090815260016020908152604080832093909416825291909152205490565b60006001600160e01b03198216635a05180f60e01b14806103e757506103e782610650565b92915050565b6060600380546103fc90610f99565b80601f016020809104026020016040519081016040528092919081815260200182805461042890610f99565b80156104755780601f1061044a57610100808354040283529160200191610475565b820191906000526020600020905b81548152906001019060200180831161045857829003601f168201915b5050505050905090565b60003361048d818585610685565b5060019392505050565b6000336104a5858285610692565b6104b0858585610710565b506001949350505050565b6000828152600560205260409020600101546104d68161076f565b6104e08383610779565b50505050565b6001600160a01b038116331461050f5760405163334bd91960e11b815260040160405180910390fd5b61051982826107ae565b505050565b7f9f2df0fed2c77648de5860a4cc508cd0818c85b8b8a1ab4ceeef8d981c8956a66105488161076f565b61051983836107db565b61055c3382610815565b50565b7f3c11d16cbaffd01df69ce1c404f6340ee057498f5f00246190ea54220576a8486105898161076f565b610519838361084b565b60008281526006602052604081206105ab9083610860565b9392505050565b60009182526005602090815260408084206001600160a01b0393909316845291905290205460ff1690565b6060600480546103fc90610f99565b60008181526006602052604090206060906103e79061086c565b60003361048d818585610710565b60008181526006602052604081206103e790610879565b6000828152600560205260409020600101546106468161076f565b6104e083836107ae565b60006001600160e01b03198216637965db0b60e01b14806103e757506301ffc9a760e01b6001600160e01b03198316146103e7565b6105198383836001610883565b6001600160a01b038381166000908152600160209081526040808320938616835292905220546000198110156104e0578181101561070157604051637dc7a0d960e11b81526001600160a01b038416600482015260248101829052604481018390526064015b60405180910390fd5b6104e084848484036000610883565b6001600160a01b03831661073a57604051634b637e8f60e11b8152600060048201526024016106f8565b6001600160a01b0382166107645760405163ec442f0560e01b8152600060048201526024016106f8565b610519838383610958565b61055c8133610a82565b6000806107868484610abb565b905080156105ab5760008481526006602052604090206107a69084610b4f565b509392505050565b6000806107bb8484610b64565b905080156105ab5760008481526006602052604090206107a69084610bd1565b6001600160a01b0382166108055760405163ec442f0560e01b8152600060048201526024016106f8565b61081160008383610958565b5050565b6001600160a01b03821661083f57604051634b637e8f60e11b8152600060048201526024016106f8565b61081182600083610958565b610856823383610692565b6108118282610815565b60006105ab8383610be6565b606060006105ab83610c10565b60006103e7825490565b6001600160a01b0384166108ad5760405163e602df0560e01b8152600060048201526024016106f8565b6001600160a01b0383166108d757604051634a1406b160e11b8152600060048201526024016106f8565b6001600160a01b03808516600090815260016020908152604080832093871683529290522082905580156104e057826001600160a01b0316846001600160a01b03167f8c5be1e5ebec7d5bd14f71427d1e84f3dd0314c0f7b2291e5b200ac8c7c3b9258460405161094a91815260200190565b60405180910390a350505050565b6001600160a01b0383166109835780600260008282546109789190610fe9565b909155506109f59050565b6001600160a01b038316600090815260208190526040902054818110156109d65760405163391434e360e21b81526001600160a01b038516600482015260248101829052604481018390526064016106f8565b6001600160a01b03841660009081526020819052604090209082900390555b6001600160a01b038216610a1157600280548290039055610a30565b6001600160a01b03821660009081526020819052604090208054820190555b816001600160a01b0316836001600160a01b03167fddf252ad1be2c89b69c2b068fc378daa952ba7f163c4a11628f55a4df523b3ef83604051610a7591815260200190565b60405180910390a3505050565b610a8c82826105b2565b6108115760405163e2517d3f60e01b81526001600160a01b0382166004820152602481018390526044016106f8565b6000610ac783836105b2565b610b475760008381526005602090815260408083206001600160a01b03861684529091529020805460ff19166001179055610aff3390565b6001600160a01b0316826001600160a01b0316847f2f8788117e7eff1d82e926ec794901d17c78024a50270940304540a733656f0d60405160405180910390a45060016103e7565b5060006103e7565b60006105ab836001600160a01b038416610c6c565b6000610b7083836105b2565b15610b475760008381526005602090815260408083206001600160a01b0386168085529252808320805460ff1916905551339286917ff6391f5c32d9c69d2a47ea670b442974b53935d1edc7fd64eb21e047a839171b9190a45060016103e7565b60006105ab836001600160a01b038416610cb3565b6000826000018281548110610bfd57610bfd610ffc565b9060005260206000200154905092915050565b606081600001805480602002602001604051908101604052809291908181526020018280548015610c6057602002820191906000526020600020905b815481526020019060010190808311610c4c575b50505050509050919050565b6000818152600183016020526040812054610b47575081546001818101845560008481526020808220909301849055845484825282860190935260409020919091556103e7565b60008181526001830160205260408120548015610d9c576000610cd7600183611012565b8554909150600090610ceb90600190611012565b9050808214610d50576000866000018281548110610d0b57610d0b610ffc565b9060005260206000200154905080876000018481548110610d2e57610d2e610ffc565b6000918252602080832090910192909255918252600188019052604090208390555b8554869080610d6157610d61611025565b6001900381819060005260206000200160009055905585600101600086815260200190815260200160002060009055600193505050506103e7565b60009150506103e7565b600060208284031215610db857600080fd5b81356001600160e01b0319811681146105ab57600080fd5b602081526000825180602084015260005b81811015610dfe5760208186018101516040868401015201610de1565b506000604082850101526040601f19601f83011684010191505092915050565b80356001600160a01b0381168114610e3557600080fd5b919050565b60008060408385031215610e4d57600080fd5b610e5683610e1e565b946020939093013593505050565b600080600060608486031215610e7957600080fd5b610e8284610e1e565b9250610e9060208501610e1e565b929592945050506040919091013590565b600060208284031215610eb357600080fd5b5035919050565b60008060408385031215610ecd57600080fd5b82359150610edd60208401610e1e565b90509250929050565b600060208284031215610ef857600080fd5b6105ab82610e1e565b60008060408385031215610f1457600080fd5b50508035926020909101359150565b602080825282518282018190526000918401906040840190835b81811015610f645783516001600160a01b0316835260209384019390920191600101610f3d565b509095945050505050565b60008060408385031215610f8257600080fd5b610f8b83610e1e565b9150610edd60208401610e1e565b600181811c90821680610fad57607f821691505b602082108103610fcd57634e487b7160e01b600052602260045260246000fd5b50919050565b634e487b7160e01b600052601160045260246000fd5b808201808211156103e7576103e7610fd3565b634e487b7160e01b600052603260045260246000fd5b818103818111156103e7576103e7610fd3565b634e487b7160e01b600052603160045260246000fdfea2646970667358221220d355b8f192c5d82ea003a2bd0ea99dd16d5c2e7b93b60cf8d1aa85b68840a4d564736f6c634300081c0033a26469706673582212200f4cdc97e0615edd18add9d1deee3a6b13d7c45d2a310ce55888ae68707d1ba964736f6c634300081c0033","opcodes":"PUSH1 0xA0 PUSH1 0x40 MSTORE CALLVALUE DUP1 ISZERO PUSH2 0x10 JUMPI PUSH1 0x0 DUP1 REVERT JUMPDEST POP PUSH1 0x40 MLOAD PUSH2 0x224B CODESIZE SUB DUP1 PUSH2 0x224B DUP4 CODECOPY DUP2 ADD PUSH1 0x40 DUP2 SWAP1 MSTORE PUSH2 0x2F SWAP2 PUSH2 0x150 JUMP JUMPDEST DUP2 PUSH1 0x1 PUSH1 0x1 PUSH1 0xA0 SHL SUB DUP2 AND PUSH2 0x5F JUMPI PUSH1 0x40 MLOAD PUSH4 0x1E4FBDF7 PUSH1 0xE0 SHL DUP2 MSTORE PUSH1 0x0 PUSH1 0x4 DUP3 ADD MSTORE PUSH1 0x24 ADD JUMPDEST PUSH1 0x40 MLOAD DUP1 SWAP2 SUB SWAP1 REVERT JUMPDEST PUSH2 0x68 DUP2 PUSH2 0xE4 JUMP JUMPDEST POP PUSH1 0x1 PUSH1 0x1 PUSH1 0xA0 SHL SUB DUP2 AND PUSH2 0xD2 JUMPI PUSH1 0x40 MLOAD PUSH3 0x461BCD PUSH1 0xE5 SHL DUP2 MSTORE PUSH1 0x20 PUSH1 0x4 DUP3 ADD MSTORE PUSH1 0x2A PUSH1 0x24 DUP3 ADD MSTORE PUSH32 0x53796E7468466163746F72793A205661756C7420616464726573732063616E6E PUSH1 0x44 DUP3 ADD MSTORE PUSH10 0x6F74206265207A65726F PUSH1 0xB0 SHL PUSH1 0x64 DUP3 ADD MSTORE PUSH1 0x84 ADD PUSH2 0x56 JUMP JUMPDEST PUSH1 0x1 PUSH1 0x1 PUSH1 0xA0 SHL SUB AND PUSH1 0x80 MSTORE POP PUSH2 0x183 JUMP JUMPDEST PUSH1 0x0 DUP1 SLOAD PUSH1 0x1 PUSH1 0x1 PUSH1 0xA0 SHL SUB DUP4 DUP2 AND PUSH1 0x1 PUSH1 0x1 PUSH1 0xA0 SHL SUB NOT DUP4 AND DUP2 OR DUP5 SSTORE PUSH1 0x40 MLOAD SWAP2 SWAP1 SWAP3 AND SWAP3 DUP4 SWAP2 PUSH32 0x8BE0079C531659141344CD1FD0A4F28419497F9722A3DAAFE3B4186F6B6457E0 SWAP2 SWAP1 LOG3 POP POP JUMP JUMPDEST DUP1 MLOAD PUSH1 0x1 PUSH1 0x1 PUSH1 0xA0 SHL SUB DUP2 AND DUP2 EQ PUSH2 0x14B JUMPI PUSH1 0x0 DUP1 REVERT JUMPDEST SWAP2 SWAP1 POP JUMP JUMPDEST PUSH1 0x0 DUP1 PUSH1 0x40 DUP4 DUP6 SUB SLT ISZERO PUSH2 0x163 JUMPI PUSH1 0x0 DUP1 REVERT JUMPDEST PUSH2 0x16C DUP4 PUSH2 0x134 JUMP JUMPDEST SWAP2 POP PUSH2 0x17A PUSH1 0x20 DUP5 ADD PUSH2 0x134 JUMP JUMPDEST SWAP1 POP SWAP3 POP SWAP3 SWAP1 POP JUMP JUMPDEST PUSH1 0x80 MLOAD PUSH2 0x2098 PUSH2 0x1B3 PUSH1 0x0 CODECOPY PUSH1 0x0 DUP2 DUP2 PUSH2 0x184 ADD MSTORE DUP2 DUP2 PUSH2 0x389 ADD MSTORE DUP2 DUP2 PUSH2 0x473 ADD MSTORE PUSH2 0x4D3 ADD MSTORE PUSH2 0x2098 PUSH1 0x0 RETURN INVALID PUSH1 0x80 PUSH1 0x40 MSTORE CALLVALUE DUP1 ISZERO PUSH2 0x10 JUMPI PUSH1 0x0 DUP1 REVERT JUMPDEST POP PUSH1 0x4 CALLDATASIZE LT PUSH2 0x9E JUMPI PUSH1 0x0 CALLDATALOAD PUSH1 0xE0 SHR DUP1 PUSH4 0x8DA5CB5B GT PUSH2 0x66 JUMPI DUP1 PUSH4 0x8DA5CB5B EQ PUSH2 0x137 JUMPI DUP1 PUSH4 0xD9A07BC9 EQ PUSH2 0x148 JUMPI DUP1 PUSH4 0xDDDDE17A EQ PUSH2 0x15B JUMPI DUP1 PUSH4 0xF2FDE38B EQ PUSH2 0x16C JUMPI DUP1 PUSH4 0xFBFA77CF EQ PUSH2 0x17F JUMPI PUSH1 0x0 DUP1 REVERT JUMPDEST DUP1 PUSH4 0x14CD6C6D EQ PUSH2 0xA3 JUMPI DUP1 PUSH4 0x2584B3AA EQ PUSH2 0xF4 JUMPI DUP1 PUSH4 0x715018A6 EQ PUSH2 0x107 JUMPI DUP1 PUSH4 0x734D7A0E EQ PUSH2 0x111 JUMPI DUP1 PUSH4 0x8D015D22 EQ PUSH2 0x124 JUMPI JUMPDEST PUSH1 0x0 DUP1 REVERT JUMPDEST PUSH2 0xD7 PUSH2 0xB1 CALLDATASIZE PUSH1 0x4 PUSH2 0x72E JUMP JUMPDEST DUP1 MLOAD PUSH1 0x20 DUP2 DUP4 ADD DUP2 ADD DUP1 MLOAD PUSH1 0x1 DUP3 MSTORE SWAP3 DUP3 ADD SWAP2 SWAP1 SWAP4 ADD KECCAK256 SWAP2 MSTORE SLOAD PUSH1 0x1 PUSH1 0x1 PUSH1 0xA0 SHL SUB AND DUP2 JUMP JUMPDEST PUSH1 0x40 MLOAD PUSH1 0x1 PUSH1 0x1 PUSH1 0xA0 SHL SUB SWAP1 SWAP2 AND DUP2 MSTORE PUSH1 0x20 ADD JUMPDEST PUSH1 0x40 MLOAD DUP1 SWAP2 SUB SWAP1 RETURN JUMPDEST PUSH2 0xD7 PUSH2 0x102 CALLDATASIZE PUSH1 0x4 PUSH2 0x830 JUMP JUMPDEST PUSH2 0x1A6 JUMP JUMPDEST PUSH2 0x10F PUSH2 0x551 JUMP JUMPDEST STOP JUMPDEST PUSH2 0xD7 PUSH2 0x11F CALLDATASIZE PUSH1 0x4 PUSH2 0x8BF JUMP JUMPDEST PUSH2 0x565 JUMP JUMPDEST PUSH2 0xD7 PUSH2 0x132 CALLDATASIZE PUSH1 0x4 PUSH2 0x8BF JUMP JUMPDEST PUSH2 0x5F1 JUMP JUMPDEST PUSH1 0x0 SLOAD PUSH1 0x1 PUSH1 0x1 PUSH1 0xA0 SHL SUB AND PUSH2 0xD7 JUMP JUMPDEST PUSH2 0xD7 PUSH2 0x156 CALLDATASIZE PUSH1 0x4 PUSH2 0x8D8 JUMP JUMPDEST PUSH2 0x61B JUMP JUMPDEST PUSH1 0x2 SLOAD PUSH1 0x40 MLOAD SWAP1 DUP2 MSTORE PUSH1 0x20 ADD PUSH2 0xEB JUMP JUMPDEST PUSH2 0x10F PUSH2 0x17A CALLDATASIZE PUSH1 0x4 PUSH2 0x91A JUMP JUMPDEST PUSH2 0x650 JUMP JUMPDEST PUSH2 0xD7 PUSH32 0x0 DUP2 JUMP JUMPDEST PUSH1 0x0 PUSH2 0x1B0 PUSH2 0x68E JUMP JUMPDEST PUSH1 0x0 PUSH1 0x1 PUSH1 0x1 PUSH1 0xA0 SHL SUB AND PUSH1 0x1 DUP6 DUP6 PUSH1 0x40 MLOAD PUSH2 0x1CD SWAP3 SWAP2 SWAP1 PUSH2 0x94A JUMP JUMPDEST SWAP1 DUP2 MSTORE PUSH1 0x40 MLOAD SWAP1 DUP2 SWAP1 SUB PUSH1 0x20 ADD SWAP1 KECCAK256 SLOAD PUSH1 0x1 PUSH1 0x1 PUSH1 0xA0 SHL SUB AND EQ PUSH2 0x244 JUMPI PUSH1 0x40 MLOAD PUSH3 0x461BCD PUSH1 0xE5 SHL DUP2 MSTORE PUSH1 0x20 PUSH1 0x4 DUP3 ADD MSTORE PUSH1 0x23 PUSH1 0x24 DUP3 ADD MSTORE PUSH32 0x53796E7468466163746F72793A2053796D626F6C20616C726561647920657869 PUSH1 0x44 DUP3 ADD MSTORE PUSH3 0x737473 PUSH1 0xE8 SHL PUSH1 0x64 DUP3 ADD MSTORE PUSH1 0x84 ADD JUMPDEST PUSH1 0x40 MLOAD DUP1 SWAP2 SUB SWAP1 REVERT JUMPDEST DUP5 PUSH2 0x29C JUMPI PUSH1 0x40 MLOAD PUSH3 0x461BCD PUSH1 0xE5 SHL DUP2 MSTORE PUSH1 0x20 PUSH1 0x4 DUP3 ADD MSTORE PUSH1 0x22 PUSH1 0x24 DUP3 ADD MSTORE PUSH32 0x53796E7468466163746F72793A204E616D652063616E6E6F7420626520656D70 PUSH1 0x44 DUP3 ADD MSTORE PUSH2 0x7479 PUSH1 0xF0 SHL PUSH1 0x64 DUP3 ADD MSTORE PUSH1 0x84 ADD PUSH2 0x23B JUMP JUMPDEST DUP3 PUSH2 0x2F5 JUMPI PUSH1 0x40 MLOAD PUSH3 0x461BCD PUSH1 0xE5 SHL DUP2 MSTORE PUSH1 0x20 PUSH1 0x4 DUP3 ADD MSTORE PUSH1 0x24 DUP1 DUP3 ADD MSTORE PUSH32 0x53796E7468466163746F72793A2053796D626F6C2063616E6E6F742062652065 PUSH1 0x44 DUP3 ADD MSTORE PUSH4 0x6D707479 PUSH1 0xE0 SHL PUSH1 0x64 DUP3 ADD MSTORE PUSH1 0x84 ADD PUSH2 0x23B JUMP JUMPDEST PUSH1 0x0 DUP3 PUSH1 0xFF AND GT DUP1 ISZERO PUSH2 0x30C JUMPI POP PUSH1 0x12 DUP3 PUSH1 0xFF AND GT ISZERO JUMPDEST PUSH2 0x370 JUMPI PUSH1 0x40 MLOAD PUSH3 0x461BCD PUSH1 0xE5 SHL DUP2 MSTORE PUSH1 0x20 PUSH1 0x4 DUP3 ADD MSTORE PUSH1 0x2F PUSH1 0x24 DUP3 ADD MSTORE PUSH32 0x53796E7468466163746F72793A20446563696D616C73206D7573742062652062 PUSH1 0x44 DUP3 ADD MSTORE PUSH15 0xCAE8EECACADC406240C2DCC840627 PUSH1 0x8B SHL PUSH1 0x64 DUP3 ADD MSTORE PUSH1 0x84 ADD PUSH2 0x23B JUMP JUMPDEST PUSH1 0x0 DUP1 SLOAD PUSH1 0x1 PUSH1 0x1 PUSH1 0xA0 SHL SUB AND SWAP1 POP PUSH1 0x0 DUP8 DUP8 DUP8 DUP8 DUP8 DUP7 PUSH32 0x0 PUSH1 0x40 MLOAD PUSH2 0x3B4 SWAP1 PUSH2 0x70B JUMP JUMPDEST PUSH2 0x3C4 SWAP8 SWAP7 SWAP6 SWAP5 SWAP4 SWAP3 SWAP2 SWAP1 PUSH2 0x983 JUMP JUMPDEST PUSH1 0x40 MLOAD DUP1 SWAP2 SUB SWAP1 PUSH1 0x0 CREATE DUP1 ISZERO DUP1 ISZERO PUSH2 0x3E0 JUMPI RETURNDATASIZE PUSH1 0x0 DUP1 RETURNDATACOPY RETURNDATASIZE PUSH1 0x0 REVERT JUMPDEST POP SWAP1 POP DUP1 SWAP3 POP DUP3 PUSH1 0x1 DUP8 DUP8 PUSH1 0x40 MLOAD PUSH2 0x3F9 SWAP3 SWAP2 SWAP1 PUSH2 0x94A JUMP JUMPDEST SWAP1 DUP2 MSTORE PUSH1 0x40 MLOAD SWAP1 DUP2 SWAP1 SUB PUSH1 0x20 ADD DUP2 KECCAK256 DUP1 SLOAD PUSH1 0x1 PUSH1 0x1 PUSH1 0xA0 SHL SUB SWAP4 DUP5 AND PUSH1 0x1 PUSH1 0x1 PUSH1 0xA0 SHL SUB NOT SWAP2 DUP3 AND OR SWAP1 SWAP2 SSTORE PUSH1 0x2 DUP1 SLOAD PUSH1 0x1 DUP2 ADD DUP3 SSTORE PUSH1 0x0 SWAP2 SWAP1 SWAP2 MSTORE PUSH32 0x405787FA12A823E0F2B7631CC41B3BA8828B3321CA811111FA75CD3AA3BB5ACE ADD DUP1 SLOAD DUP8 DUP6 AND SWAP3 AND DUP3 OR SWAP1 SSTORE PUSH4 0x56729CC5 PUSH1 0xE1 SHL DUP3 MSTORE PUSH1 0x4 DUP3 ADD MSTORE PUSH32 0x0 SWAP1 SWAP2 AND SWAP1 PUSH4 0xACE5398A SWAP1 PUSH1 0x24 ADD PUSH1 0x0 PUSH1 0x40 MLOAD DUP1 DUP4 SUB DUP2 PUSH1 0x0 DUP8 DUP1 EXTCODESIZE ISZERO DUP1 ISZERO PUSH2 0x4B9 JUMPI PUSH1 0x0 DUP1 REVERT JUMPDEST POP GAS CALL ISZERO DUP1 ISZERO PUSH2 0x4CD JUMPI RETURNDATASIZE PUSH1 0x0 DUP1 RETURNDATACOPY RETURNDATASIZE PUSH1 0x0 REVERT JUMPDEST POP POP POP POP PUSH32 0x0 PUSH1 0x1 PUSH1 0x1 PUSH1 0xA0 SHL SUB AND DUP4 PUSH1 0x1 PUSH1 0x1 PUSH1 0xA0 SHL SUB AND PUSH32 0x4048353DAEAC164BD3C491159FC34428025F0BD6DEC64FB19ED1FAF812A0D9BB DUP11 DUP11 DUP11 DUP11 DUP11 DUP10 PUSH1 0x40 MLOAD PUSH2 0x53E SWAP7 SWAP6 SWAP5 SWAP4 SWAP3 SWAP2 SWAP1 PUSH2 0x9D7 JUMP JUMPDEST PUSH1 0x40 MLOAD DUP1 SWAP2 SUB SWAP1 LOG3 POP POP SWAP6 SWAP5 POP POP POP POP POP JUMP JUMPDEST PUSH2 0x559 PUSH2 0x68E JUMP JUMPDEST PUSH2 0x563 PUSH1 0x0 PUSH2 0x6BB JUMP JUMPDEST JUMP JUMPDEST PUSH1 0x2 SLOAD PUSH1 0x0 SWAP1 DUP3 LT PUSH2 0x5C3 JUMPI PUSH1 0x40 MLOAD PUSH3 0x461BCD PUSH1 0xE5 SHL DUP2 MSTORE PUSH1 0x20 PUSH1 0x4 DUP3 ADD MSTORE PUSH1 0x21 PUSH1 0x24 DUP3 ADD MSTORE PUSH32 0x53796E7468466163746F72793A20496E646578206F7574206F6620626F756E64 PUSH1 0x44 DUP3 ADD MSTORE PUSH1 0x73 PUSH1 0xF8 SHL PUSH1 0x64 DUP3 ADD MSTORE PUSH1 0x84 ADD PUSH2 0x23B JUMP JUMPDEST PUSH1 0x2 DUP3 DUP2 SLOAD DUP2 LT PUSH2 0x5D6 JUMPI PUSH2 0x5D6 PUSH2 0xA25 JUMP JUMPDEST PUSH1 0x0 SWAP2 DUP3 MSTORE PUSH1 0x20 SWAP1 SWAP2 KECCAK256 ADD SLOAD PUSH1 0x1 PUSH1 0x1 PUSH1 0xA0 SHL SUB AND SWAP3 SWAP2 POP POP JUMP JUMPDEST PUSH1 0x2 DUP2 DUP2 SLOAD DUP2 LT PUSH2 0x601 JUMPI PUSH1 0x0 DUP1 REVERT JUMPDEST PUSH1 0x0 SWAP2 DUP3 MSTORE PUSH1 0x20 SWAP1 SWAP2 KECCAK256 ADD SLOAD PUSH1 0x1 PUSH1 0x1 PUSH1 0xA0 SHL SUB AND SWAP1 POP DUP2 JUMP JUMPDEST PUSH1 0x0 PUSH1 0x1 DUP4 DUP4 PUSH1 0x40 MLOAD PUSH2 0x62F SWAP3 SWAP2 SWAP1 PUSH2 0x94A JUMP JUMPDEST SWAP1 DUP2 MSTORE PUSH1 0x40 MLOAD SWAP1 DUP2 SWAP1 SUB PUSH1 0x20 ADD SWAP1 KECCAK256 SLOAD PUSH1 0x1 PUSH1 0x1 PUSH1 0xA0 SHL SUB AND SWAP1 POP SWAP3 SWAP2 POP POP JUMP JUMPDEST PUSH2 0x658 PUSH2 0x68E JUMP JUMPDEST PUSH1 0x1 PUSH1 0x1 PUSH1 0xA0 SHL SUB DUP2 AND PUSH2 0x682 JUMPI PUSH1 0x40 MLOAD PUSH4 0x1E4FBDF7 PUSH1 0xE0 SHL DUP2 MSTORE PUSH1 0x0 PUSH1 0x4 DUP3 ADD MSTORE PUSH1 0x24 ADD PUSH2 0x23B JUMP JUMPDEST PUSH2 0x68B DUP2 PUSH2 0x6BB JUMP JUMPDEST POP JUMP JUMPDEST PUSH1 0x0 SLOAD PUSH1 0x1 PUSH1 0x1 PUSH1 0xA0 SHL SUB AND CALLER EQ PUSH2 0x563 JUMPI PUSH1 0x40 MLOAD PUSH4 0x118CDAA7 PUSH1 0xE0 SHL DUP2 MSTORE CALLER PUSH1 0x4 DUP3 ADD MSTORE PUSH1 0x24 ADD PUSH2 0x23B JUMP JUMPDEST PUSH1 0x0 DUP1 SLOAD PUSH1 0x1 PUSH1 0x1 PUSH1 0xA0 SHL SUB DUP4 DUP2 AND PUSH1 0x1 PUSH1 0x1 PUSH1 0xA0 SHL SUB NOT DUP4 AND DUP2 OR DUP5 SSTORE PUSH1 0x40 MLOAD SWAP2 SWAP1 SWAP3 AND SWAP3 DUP4 SWAP2 PUSH32 0x8BE0079C531659141344CD1FD0A4F28419497F9722A3DAAFE3B4186F6B6457E0 SWAP2 SWAP1 LOG3 POP POP JUMP JUMPDEST PUSH2 0x1627 DUP1 PUSH2 0xA3C DUP4 CODECOPY ADD SWAP1 JUMP JUMPDEST PUSH4 0x4E487B71 PUSH1 0xE0 SHL PUSH1 0x0 MSTORE PUSH1 0x41 PUSH1 0x4 MSTORE PUSH1 0x24 PUSH1 0x0 REVERT JUMPDEST PUSH1 0x0 PUSH1 0x20 DUP3 DUP5 SUB SLT ISZERO PUSH2 0x740 JUMPI PUSH1 0x0 DUP1 REVERT JUMPDEST DUP2 CALLDATALOAD PUSH8 0xFFFFFFFFFFFFFFFF DUP2 GT ISZERO PUSH2 0x757 JUMPI PUSH1 0x0 DUP1 REVERT JUMPDEST DUP3 ADD PUSH1 0x1F DUP2 ADD DUP5 SGT PUSH2 0x768 JUMPI PUSH1 0x0 DUP1 REVERT JUMPDEST DUP1 CALLDATALOAD PUSH8 0xFFFFFFFFFFFFFFFF DUP2 GT ISZERO PUSH2 0x782 JUMPI PUSH2 0x782 PUSH2 0x718 JUMP JUMPDEST PUSH1 0x40 MLOAD PUSH1 0x1F DUP3 ADD PUSH1 0x1F NOT SWAP1 DUP2 AND PUSH1 0x3F ADD AND DUP2 ADD PUSH8 0xFFFFFFFFFFFFFFFF DUP2 GT DUP3 DUP3 LT OR ISZERO PUSH2 0x7B1 JUMPI PUSH2 0x7B1 PUSH2 0x718 JUMP JUMPDEST PUSH1 0x40 MSTORE DUP2 DUP2 MSTORE DUP3 DUP3 ADD PUSH1 0x20 ADD DUP7 LT ISZERO PUSH2 0x7C9 JUMPI PUSH1 0x0 DUP1 REVERT JUMPDEST DUP2 PUSH1 0x20 DUP5 ADD PUSH1 0x20 DUP4 ADD CALLDATACOPY PUSH1 0x0 SWAP2 DUP2 ADD PUSH1 0x20 ADD SWAP2 SWAP1 SWAP2 MSTORE SWAP5 SWAP4 POP POP POP POP JUMP JUMPDEST PUSH1 0x0 DUP1 DUP4 PUSH1 0x1F DUP5 ADD SLT PUSH2 0x7F9 JUMPI PUSH1 0x0 DUP1 REVERT JUMPDEST POP DUP2 CALLDATALOAD PUSH8 0xFFFFFFFFFFFFFFFF DUP2 GT ISZERO PUSH2 0x811 JUMPI PUSH1 0x0 DUP1 REVERT JUMPDEST PUSH1 0x20 DUP4 ADD SWAP2 POP DUP4 PUSH1 0x20 DUP3 DUP6 ADD ADD GT ISZERO PUSH2 0x829 JUMPI PUSH1 0x0 DUP1 REVERT JUMPDEST SWAP3 POP SWAP3 SWAP1 POP JUMP JUMPDEST PUSH1 0x0 DUP1 PUSH1 0x0 DUP1 PUSH1 0x0 PUSH1 0x60 DUP7 DUP9 SUB SLT ISZERO PUSH2 0x848 JUMPI PUSH1 0x0 DUP1 REVERT JUMPDEST DUP6 CALLDATALOAD PUSH8 0xFFFFFFFFFFFFFFFF DUP2 GT ISZERO PUSH2 0x85F JUMPI PUSH1 0x0 DUP1 REVERT JUMPDEST PUSH2 0x86B DUP9 DUP3 DUP10 ADD PUSH2 0x7E7 JUMP JUMPDEST SWAP1 SWAP7 POP SWAP5 POP POP PUSH1 0x20 DUP7 ADD CALLDATALOAD PUSH8 0xFFFFFFFFFFFFFFFF DUP2 GT ISZERO PUSH2 0x88B JUMPI PUSH1 0x0 DUP1 REVERT JUMPDEST PUSH2 0x897 DUP9 DUP3 DUP10 ADD PUSH2 0x7E7 JUMP JUMPDEST SWAP1 SWAP5 POP SWAP3 POP POP PUSH1 0x40 DUP7 ADD CALLDATALOAD PUSH1 0xFF DUP2 AND DUP2 EQ PUSH2 0x8B1 JUMPI PUSH1 0x0 DUP1 REVERT JUMPDEST DUP1 SWAP2 POP POP SWAP3 SWAP6 POP SWAP3 SWAP6 SWAP1 SWAP4 POP JUMP JUMPDEST PUSH1 0x0 PUSH1 0x20 DUP3 DUP5 SUB SLT ISZERO PUSH2 0x8D1 JUMPI PUSH1 0x0 DUP1 REVERT JUMPDEST POP CALLDATALOAD SWAP2 SWAP1 POP JUMP JUMPDEST PUSH1 0x0 DUP1 PUSH1 0x20 DUP4 DUP6 SUB SLT ISZERO PUSH2 0x8EB JUMPI PUSH1 0x0 DUP1 REVERT JUMPDEST DUP3 CALLDATALOAD PUSH8 0xFFFFFFFFFFFFFFFF DUP2 GT ISZERO PUSH2 0x902 JUMPI PUSH1 0x0 DUP1 REVERT JUMPDEST PUSH2 0x90E DUP6 DUP3 DUP7 ADD PUSH2 0x7E7 JUMP JUMPDEST SWAP1 SWAP7 SWAP1 SWAP6 POP SWAP4 POP POP POP POP JUMP JUMPDEST PUSH1 0x0 PUSH1 0x20 DUP3 DUP5 SUB SLT ISZERO PUSH2 0x92C JUMPI PUSH1 0x0 DUP1 REVERT JUMPDEST DUP2 CALLDATALOAD PUSH1 0x1 PUSH1 0x1 PUSH1 0xA0 SHL SUB DUP2 AND DUP2 EQ PUSH2 0x943 JUMPI PUSH1 0x0 DUP1 REVERT JUMPDEST SWAP4 SWAP3 POP POP POP JUMP JUMPDEST DUP2 DUP4 DUP3 CALLDATACOPY PUSH1 0x0 SWAP2 ADD SWAP1 DUP2 MSTORE SWAP2 SWAP1 POP JUMP JUMPDEST DUP2 DUP4 MSTORE DUP2 DUP2 PUSH1 0x20 DUP6 ADD CALLDATACOPY POP PUSH1 0x0 DUP3 DUP3 ADD PUSH1 0x20 SWAP1 DUP2 ADD SWAP2 SWAP1 SWAP2 MSTORE PUSH1 0x1F SWAP1 SWAP2 ADD PUSH1 0x1F NOT AND SWAP1 SWAP2 ADD ADD SWAP1 JUMP JUMPDEST PUSH1 0xA0 DUP2 MSTORE PUSH1 0x0 PUSH2 0x997 PUSH1 0xA0 DUP4 ADD DUP10 DUP12 PUSH2 0x95A JUMP JUMPDEST DUP3 DUP2 SUB PUSH1 0x20 DUP5 ADD MSTORE PUSH2 0x9AA DUP2 DUP9 DUP11 PUSH2 0x95A JUMP JUMPDEST PUSH1 0xFF SWAP7 SWAP1 SWAP7 AND PUSH1 0x40 DUP5 ADD MSTORE POP POP PUSH1 0x1 PUSH1 0x1 PUSH1 0xA0 SHL SUB SWAP3 DUP4 AND PUSH1 0x60 DUP3 ADD MSTORE SWAP2 AND PUSH1 0x80 SWAP1 SWAP2 ADD MSTORE SWAP5 SWAP4 POP POP POP POP JUMP JUMPDEST PUSH1 0x80 DUP2 MSTORE PUSH1 0x0 PUSH2 0x9EB PUSH1 0x80 DUP4 ADD DUP9 DUP11 PUSH2 0x95A JUMP JUMPDEST DUP3 DUP2 SUB PUSH1 0x20 DUP5 ADD MSTORE PUSH2 0x9FE DUP2 DUP8 DUP10 PUSH2 0x95A JUMP JUMPDEST PUSH1 0xFF SWAP6 SWAP1 SWAP6 AND PUSH1 0x40 DUP5 ADD MSTORE POP POP PUSH1 0x1 PUSH1 0x1 PUSH1 0xA0 SHL SUB SWAP2 SWAP1 SWAP2 AND PUSH1 0x60 SWAP1 SWAP2 ADD MSTORE SWAP5 SWAP4 POP POP POP POP JUMP JUMPDEST PUSH4 0x4E487B71 PUSH1 0xE0 SHL PUSH1 0x0 MSTORE PUSH1 0x32 PUSH1 0x4 MSTORE PUSH1 0x24 PUSH1 0x0 REVERT INVALID PUSH1 0x80 PUSH1 0x40 MSTORE CALLVALUE DUP1 ISZERO PUSH2 0x10 JUMPI PUSH1 0x0 DUP1 REVERT JUMPDEST POP PUSH1 0x40 MLOAD PUSH2 0x1627 CODESIZE SUB DUP1 PUSH2 0x1627 DUP4 CODECOPY DUP2 ADD PUSH1 0x40 DUP2 SWAP1 MSTORE PUSH2 0x2F SWAP2 PUSH2 0x3BD JUMP JUMPDEST DUP5 DUP5 PUSH1 0x3 PUSH2 0x3D DUP4 DUP3 PUSH2 0x4E9 JUMP JUMPDEST POP PUSH1 0x4 PUSH2 0x4A DUP3 DUP3 PUSH2 0x4E9 JUMP JUMPDEST POP POP POP PUSH1 0x1 PUSH1 0x1 PUSH1 0xA0 SHL SUB DUP3 AND PUSH2 0xC1 JUMPI PUSH1 0x40 MLOAD PUSH3 0x461BCD PUSH1 0xE5 SHL DUP2 MSTORE PUSH1 0x20 PUSH1 0x4 DUP3 ADD MSTORE PUSH1 0x30 PUSH1 0x24 DUP3 ADD MSTORE PUSH32 0x53796E746845524332303A20496E697469616C2061646D696E2063616E6E6F74 PUSH1 0x44 DUP3 ADD MSTORE PUSH16 0x206265207A65726F2061646472657373 PUSH1 0x80 SHL PUSH1 0x64 DUP3 ADD MSTORE PUSH1 0x84 ADD JUMPDEST PUSH1 0x40 MLOAD DUP1 SWAP2 SUB SWAP1 REVERT JUMPDEST PUSH1 0x1 PUSH1 0x1 PUSH1 0xA0 SHL SUB DUP2 AND PUSH2 0x130 JUMPI PUSH1 0x40 MLOAD PUSH3 0x461BCD PUSH1 0xE5 SHL DUP2 MSTORE PUSH1 0x20 PUSH1 0x4 DUP3 ADD MSTORE PUSH1 0x30 PUSH1 0x24 DUP3 ADD MSTORE PUSH32 0x53796E746845524332303A204D696E7465722F4275726E65722063616E6E6F74 PUSH1 0x44 DUP3 ADD MSTORE PUSH16 0x206265207A65726F2061646472657373 PUSH1 0x80 SHL PUSH1 0x64 DUP3 ADD MSTORE PUSH1 0x84 ADD PUSH2 0xB8 JUMP JUMPDEST PUSH1 0x7 DUP1 SLOAD PUSH1 0xFF NOT AND PUSH1 0xFF DUP6 AND OR SWAP1 SSTORE PUSH2 0x14A PUSH1 0x0 DUP4 PUSH2 0x1AB JUMP JUMPDEST POP PUSH2 0x175 PUSH32 0x9F2DF0FED2C77648DE5860A4CC508CD0818C85B8B8A1AB4CEEEF8D981C8956A6 DUP3 PUSH2 0x1AB JUMP JUMPDEST POP PUSH2 0x1A0 PUSH32 0x3C11D16CBAFFD01DF69CE1C404F6340EE057498F5F00246190EA54220576A848 DUP3 PUSH2 0x1AB JUMP JUMPDEST POP POP POP POP POP POP PUSH2 0x5A7 JUMP JUMPDEST PUSH1 0x0 DUP1 PUSH2 0x1B8 DUP5 DUP5 PUSH2 0x1E3 JUMP JUMPDEST SWAP1 POP DUP1 ISZERO PUSH2 0x1DA JUMPI PUSH1 0x0 DUP5 DUP2 MSTORE PUSH1 0x6 PUSH1 0x20 MSTORE PUSH1 0x40 SWAP1 KECCAK256 PUSH2 0x1D8 SWAP1 DUP5 PUSH2 0x291 JUMP JUMPDEST POP JUMPDEST SWAP1 POP JUMPDEST SWAP3 SWAP2 POP POP JUMP JUMPDEST PUSH1 0x0 DUP3 DUP2 MSTORE PUSH1 0x5 PUSH1 0x20 SWAP1 DUP2 MSTORE PUSH1 0x40 DUP1 DUP4 KECCAK256 PUSH1 0x1 PUSH1 0x1 PUSH1 0xA0 SHL SUB DUP6 AND DUP5 MSTORE SWAP1 SWAP2 MSTORE DUP2 KECCAK256 SLOAD PUSH1 0xFF AND PUSH2 0x289 JUMPI PUSH1 0x0 DUP4 DUP2 MSTORE PUSH1 0x5 PUSH1 0x20 SWAP1 DUP2 MSTORE PUSH1 0x40 DUP1 DUP4 KECCAK256 PUSH1 0x1 PUSH1 0x1 PUSH1 0xA0 SHL SUB DUP7 AND DUP5 MSTORE SWAP1 SWAP2 MSTORE SWAP1 KECCAK256 DUP1 SLOAD PUSH1 0xFF NOT AND PUSH1 0x1 OR SWAP1 SSTORE PUSH2 0x241 CALLER SWAP1 JUMP JUMPDEST PUSH1 0x1 PUSH1 0x1 PUSH1 0xA0 SHL SUB AND DUP3 PUSH1 0x1 PUSH1 0x1 PUSH1 0xA0 SHL SUB AND DUP5 PUSH32 0x2F8788117E7EFF1D82E926EC794901D17C78024A50270940304540A733656F0D PUSH1 0x40 MLOAD PUSH1 0x40 MLOAD DUP1 SWAP2 SUB SWAP1 LOG4 POP PUSH1 0x1 PUSH2 0x1DD JUMP JUMPDEST POP PUSH1 0x0 PUSH2 0x1DD JUMP JUMPDEST PUSH1 0x0 PUSH2 0x1DA DUP4 PUSH1 0x1 PUSH1 0x1 PUSH1 0xA0 SHL SUB DUP5 AND PUSH1 0x0 DUP2 DUP2 MSTORE PUSH1 0x1 DUP4 ADD PUSH1 0x20 MSTORE PUSH1 0x40 DUP2 KECCAK256 SLOAD PUSH2 0x289 JUMPI POP DUP2 SLOAD PUSH1 0x1 DUP2 DUP2 ADD DUP5 SSTORE PUSH1 0x0 DUP5 DUP2 MSTORE PUSH1 0x20 DUP1 DUP3 KECCAK256 SWAP1 SWAP4 ADD DUP5 SWAP1 SSTORE DUP5 SLOAD DUP5 DUP3 MSTORE DUP3 DUP7 ADD SWAP1 SWAP4 MSTORE PUSH1 0x40 SWAP1 KECCAK256 SWAP2 SWAP1 SWAP2 SSTORE PUSH2 0x1DD JUMP JUMPDEST PUSH4 0x4E487B71 PUSH1 0xE0 SHL PUSH1 0x0 MSTORE PUSH1 0x41 PUSH1 0x4 MSTORE PUSH1 0x24 PUSH1 0x0 REVERT JUMPDEST PUSH1 0x0 DUP3 PUSH1 0x1F DUP4 ADD SLT PUSH2 0x30F JUMPI PUSH1 0x0 DUP1 REVERT JUMPDEST DUP2 MLOAD PUSH1 0x1 PUSH1 0x1 PUSH1 0x40 SHL SUB DUP2 GT ISZERO PUSH2 0x328 JUMPI PUSH2 0x328 PUSH2 0x2E8 JUMP JUMPDEST PUSH1 0x40 MLOAD PUSH1 0x1F DUP3 ADD PUSH1 0x1F NOT SWAP1 DUP2 AND PUSH1 0x3F ADD AND DUP2 ADD PUSH1 0x1 PUSH1 0x1 PUSH1 0x40 SHL SUB DUP2 GT DUP3 DUP3 LT OR ISZERO PUSH2 0x356 JUMPI PUSH2 0x356 PUSH2 0x2E8 JUMP JUMPDEST PUSH1 0x40 MSTORE DUP2 DUP2 MSTORE DUP4 DUP3 ADD PUSH1 0x20 ADD DUP6 LT ISZERO PUSH2 0x36E JUMPI PUSH1 0x0 DUP1 REVERT JUMPDEST PUSH1 0x0 JUMPDEST DUP3 DUP2 LT ISZERO PUSH2 0x38D JUMPI PUSH1 0x20 DUP2 DUP7 ADD DUP2 ADD MLOAD DUP4 DUP4 ADD DUP3 ADD MSTORE ADD PUSH2 0x371 JUMP JUMPDEST POP PUSH1 0x0 SWAP2 DUP2 ADD PUSH1 0x20 ADD SWAP2 SWAP1 SWAP2 MSTORE SWAP4 SWAP3 POP POP POP JUMP JUMPDEST DUP1 MLOAD PUSH1 0x1 PUSH1 0x1 PUSH1 0xA0 SHL SUB DUP2 AND DUP2 EQ PUSH2 0x3B8 JUMPI PUSH1 0x0 DUP1 REVERT JUMPDEST SWAP2 SWAP1 POP JUMP JUMPDEST PUSH1 0x0 DUP1 PUSH1 0x0 DUP1 PUSH1 0x0 PUSH1 0xA0 DUP7 DUP9 SUB SLT ISZERO PUSH2 0x3D5 JUMPI PUSH1 0x0 DUP1 REVERT JUMPDEST DUP6 MLOAD PUSH1 0x1 PUSH1 0x1 PUSH1 0x40 SHL SUB DUP2 GT ISZERO PUSH2 0x3EB JUMPI PUSH1 0x0 DUP1 REVERT JUMPDEST PUSH2 0x3F7 DUP9 DUP3 DUP10 ADD PUSH2 0x2FE JUMP JUMPDEST PUSH1 0x20 DUP9 ADD MLOAD SWAP1 SWAP7 POP SWAP1 POP PUSH1 0x1 PUSH1 0x1 PUSH1 0x40 SHL SUB DUP2 GT ISZERO PUSH2 0x415 JUMPI PUSH1 0x0 DUP1 REVERT JUMPDEST PUSH2 0x421 DUP9 DUP3 DUP10 ADD PUSH2 0x2FE JUMP JUMPDEST SWAP5 POP POP PUSH1 0x40 DUP7 ADD MLOAD PUSH1 0xFF DUP2 AND DUP2 EQ PUSH2 0x438 JUMPI PUSH1 0x0 DUP1 REVERT JUMPDEST SWAP3 POP PUSH2 0x446 PUSH1 0x60 DUP8 ADD PUSH2 0x3A1 JUMP JUMPDEST SWAP2 POP PUSH2 0x454 PUSH1 0x80 DUP8 ADD PUSH2 0x3A1 JUMP JUMPDEST SWAP1 POP SWAP3 SWAP6 POP SWAP3 SWAP6 SWAP1 SWAP4 POP JUMP JUMPDEST PUSH1 0x1 DUP2 DUP2 SHR SWAP1 DUP3 AND DUP1 PUSH2 0x474 JUMPI PUSH1 0x7F DUP3 AND SWAP2 POP JUMPDEST PUSH1 0x20 DUP3 LT DUP2 SUB PUSH2 0x494 JUMPI PUSH4 0x4E487B71 PUSH1 0xE0 SHL PUSH1 0x0 MSTORE PUSH1 0x22 PUSH1 0x4 MSTORE PUSH1 0x24 PUSH1 0x0 REVERT JUMPDEST POP SWAP2 SWAP1 POP JUMP JUMPDEST PUSH1 0x1F DUP3 GT ISZERO PUSH2 0x4E4 JUMPI DUP1 PUSH1 0x0 MSTORE PUSH1 0x20 PUSH1 0x0 KECCAK256 PUSH1 0x1F DUP5 ADD PUSH1 0x5 SHR DUP2 ADD PUSH1 0x20 DUP6 LT ISZERO PUSH2 0x4C1 JUMPI POP DUP1 JUMPDEST PUSH1 0x1F DUP5 ADD PUSH1 0x5 SHR DUP3 ADD SWAP2 POP JUMPDEST DUP2 DUP2 LT ISZERO PUSH2 0x4E1 JUMPI PUSH1 0x0 DUP2 SSTORE PUSH1 0x1 ADD PUSH2 0x4CD JUMP JUMPDEST POP POP JUMPDEST POP POP POP JUMP JUMPDEST DUP2 MLOAD PUSH1 0x1 PUSH1 0x1 PUSH1 0x40 SHL SUB DUP2 GT ISZERO PUSH2 0x502 JUMPI PUSH2 0x502 PUSH2 0x2E8 JUMP JUMPDEST PUSH2 0x516 DUP2 PUSH2 0x510 DUP5 SLOAD PUSH2 0x460 JUMP JUMPDEST DUP5 PUSH2 0x49A JUMP JUMPDEST PUSH1 0x20 PUSH1 0x1F DUP3 GT PUSH1 0x1 DUP2 EQ PUSH2 0x54A JUMPI PUSH1 0x0 DUP4 ISZERO PUSH2 0x532 JUMPI POP DUP5 DUP3 ADD MLOAD JUMPDEST PUSH1 0x0 NOT PUSH1 0x3 DUP6 SWAP1 SHL SHR NOT AND PUSH1 0x1 DUP5 SWAP1 SHL OR DUP5 SSTORE PUSH2 0x4E1 JUMP JUMPDEST PUSH1 0x0 DUP5 DUP2 MSTORE PUSH1 0x20 DUP2 KECCAK256 PUSH1 0x1F NOT DUP6 AND SWAP2 JUMPDEST DUP3 DUP2 LT ISZERO PUSH2 0x57A JUMPI DUP8 DUP6 ADD MLOAD DUP3 SSTORE PUSH1 0x20 SWAP5 DUP6 ADD SWAP5 PUSH1 0x1 SWAP1 SWAP3 ADD SWAP2 ADD PUSH2 0x55A JUMP JUMPDEST POP DUP5 DUP3 LT ISZERO PUSH2 0x598 JUMPI DUP7 DUP5 ADD MLOAD PUSH1 0x0 NOT PUSH1 0x3 DUP8 SWAP1 SHL PUSH1 0xF8 AND SHR NOT AND DUP2 SSTORE JUMPDEST POP POP POP POP PUSH1 0x1 SWAP1 DUP2 SHL ADD SWAP1 SSTORE POP JUMP JUMPDEST PUSH2 0x1071 DUP1 PUSH2 0x5B6 PUSH1 0x0 CODECOPY PUSH1 0x0 RETURN INVALID PUSH1 0x80 PUSH1 0x40 MSTORE CALLVALUE DUP1 ISZERO PUSH2 0x10 JUMPI PUSH1 0x0 DUP1 REVERT JUMPDEST POP PUSH1 0x4 CALLDATASIZE LT PUSH2 0x158 JUMPI PUSH1 0x0 CALLDATALOAD PUSH1 0xE0 SHR DUP1 PUSH4 0x70A08231 GT PUSH2 0xC3 JUMPI DUP1 PUSH4 0xA3246AD3 GT PUSH2 0x7C JUMPI DUP1 PUSH4 0xA3246AD3 EQ PUSH2 0x309 JUMPI DUP1 PUSH4 0xA9059CBB EQ PUSH2 0x329 JUMPI DUP1 PUSH4 0xCA15C873 EQ PUSH2 0x33C JUMPI DUP1 PUSH4 0xD5391393 EQ PUSH2 0x34F JUMPI DUP1 PUSH4 0xD547741F EQ PUSH2 0x376 JUMPI DUP1 PUSH4 0xDD62ED3E EQ PUSH2 0x389 JUMPI PUSH1 0x0 DUP1 REVERT JUMPDEST DUP1 PUSH4 0x70A08231 EQ PUSH2 0x27F JUMPI DUP1 PUSH4 0x79CC6790 EQ PUSH2 0x2A8 JUMPI DUP1 PUSH4 0x9010D07C EQ PUSH2 0x2BB JUMPI DUP1 PUSH4 0x91D14854 EQ PUSH2 0x2E6 JUMPI DUP1 PUSH4 0x95D89B41 EQ PUSH2 0x2F9 JUMPI DUP1 PUSH4 0xA217FDDF EQ PUSH2 0x301 JUMPI PUSH1 0x0 DUP1 REVERT JUMPDEST DUP1 PUSH4 0x282C51F3 GT PUSH2 0x115 JUMPI DUP1 PUSH4 0x282C51F3 EQ PUSH2 0x1F5 JUMPI DUP1 PUSH4 0x2F2FF15D EQ PUSH2 0x21C JUMPI DUP1 PUSH4 0x313CE567 EQ PUSH2 0x231 JUMPI DUP1 PUSH4 0x36568ABE EQ PUSH2 0x246 JUMPI DUP1 PUSH4 0x40C10F19 EQ PUSH2 0x259 JUMPI DUP1 PUSH4 0x42966C68 EQ PUSH2 0x26C JUMPI PUSH1 0x0 DUP1 REVERT JUMPDEST DUP1 PUSH4 0x1FFC9A7 EQ PUSH2 0x15D JUMPI DUP1 PUSH4 0x6FDDE03 EQ PUSH2 0x185 JUMPI DUP1 PUSH4 0x95EA7B3 EQ PUSH2 0x19A JUMPI DUP1 PUSH4 0x18160DDD EQ PUSH2 0x1AD JUMPI DUP1 PUSH4 0x23B872DD EQ PUSH2 0x1BF JUMPI DUP1 PUSH4 0x248A9CA3 EQ PUSH2 0x1D2 JUMPI JUMPDEST PUSH1 0x0 DUP1 REVERT JUMPDEST PUSH2 0x170 PUSH2 0x16B CALLDATASIZE PUSH1 0x4 PUSH2 0xDA6 JUMP JUMPDEST PUSH2 0x3C2 JUMP JUMPDEST PUSH1 0x40 MLOAD SWAP1 ISZERO ISZERO DUP2 MSTORE PUSH1 0x20 ADD JUMPDEST PUSH1 0x40 MLOAD DUP1 SWAP2 SUB SWAP1 RETURN JUMPDEST PUSH2 0x18D PUSH2 0x3ED JUMP JUMPDEST PUSH1 0x40 MLOAD PUSH2 0x17C SWAP2 SWAP1 PUSH2 0xDD0 JUMP JUMPDEST PUSH2 0x170 PUSH2 0x1A8 CALLDATASIZE PUSH1 0x4 PUSH2 0xE3A JUMP JUMPDEST PUSH2 0x47F JUMP JUMPDEST PUSH1 0x2 SLOAD JUMPDEST PUSH1 0x40 MLOAD SWAP1 DUP2 MSTORE PUSH1 0x20 ADD PUSH2 0x17C JUMP JUMPDEST PUSH2 0x170 PUSH2 0x1CD CALLDATASIZE PUSH1 0x4 PUSH2 0xE64 JUMP JUMPDEST PUSH2 0x497 JUMP JUMPDEST PUSH2 0x1B1 PUSH2 0x1E0 CALLDATASIZE PUSH1 0x4 PUSH2 0xEA1 JUMP JUMPDEST PUSH1 0x0 SWAP1 DUP2 MSTORE PUSH1 0x5 PUSH1 0x20 MSTORE PUSH1 0x40 SWAP1 KECCAK256 PUSH1 0x1 ADD SLOAD SWAP1 JUMP JUMPDEST PUSH2 0x1B1 PUSH32 0x3C11D16CBAFFD01DF69CE1C404F6340EE057498F5F00246190EA54220576A848 DUP2 JUMP JUMPDEST PUSH2 0x22F PUSH2 0x22A CALLDATASIZE PUSH1 0x4 PUSH2 0xEBA JUMP JUMPDEST PUSH2 0x4BB JUMP JUMPDEST STOP JUMPDEST PUSH1 0x7 SLOAD PUSH1 0x40 MLOAD PUSH1 0xFF SWAP1 SWAP2 AND DUP2 MSTORE PUSH1 0x20 ADD PUSH2 0x17C JUMP JUMPDEST PUSH2 0x22F PUSH2 0x254 CALLDATASIZE PUSH1 0x4 PUSH2 0xEBA JUMP JUMPDEST PUSH2 0x4E6 JUMP JUMPDEST PUSH2 0x22F PUSH2 0x267 CALLDATASIZE PUSH1 0x4 PUSH2 0xE3A JUMP JUMPDEST PUSH2 0x51E JUMP JUMPDEST PUSH2 0x22F PUSH2 0x27A CALLDATASIZE PUSH1 0x4 PUSH2 0xEA1 JUMP JUMPDEST PUSH2 0x552 JUMP JUMPDEST PUSH2 0x1B1 PUSH2 0x28D CALLDATASIZE PUSH1 0x4 PUSH2 0xEE6 JUMP JUMPDEST PUSH1 0x1 PUSH1 0x1 PUSH1 0xA0 SHL SUB AND PUSH1 0x0 SWAP1 DUP2 MSTORE PUSH1 0x20 DUP2 SWAP1 MSTORE PUSH1 0x40 SWAP1 KECCAK256 SLOAD SWAP1 JUMP JUMPDEST PUSH2 0x22F PUSH2 0x2B6 CALLDATASIZE PUSH1 0x4 PUSH2 0xE3A JUMP JUMPDEST PUSH2 0x55F JUMP JUMPDEST PUSH2 0x2CE PUSH2 0x2C9 CALLDATASIZE PUSH1 0x4 PUSH2 0xF01 JUMP JUMPDEST PUSH2 0x593 JUMP JUMPDEST PUSH1 0x40 MLOAD PUSH1 0x1 PUSH1 0x1 PUSH1 0xA0 SHL SUB SWAP1 SWAP2 AND DUP2 MSTORE PUSH1 0x20 ADD PUSH2 0x17C JUMP JUMPDEST PUSH2 0x170 PUSH2 0x2F4 CALLDATASIZE PUSH1 0x4 PUSH2 0xEBA JUMP JUMPDEST PUSH2 0x5B2 JUMP JUMPDEST PUSH2 0x18D PUSH2 0x5DD JUMP JUMPDEST PUSH2 0x1B1 PUSH1 0x0 DUP2 JUMP JUMPDEST PUSH2 0x31C PUSH2 0x317 CALLDATASIZE PUSH1 0x4 PUSH2 0xEA1 JUMP JUMPDEST PUSH2 0x5EC JUMP JUMPDEST PUSH1 0x40 MLOAD PUSH2 0x17C SWAP2 SWAP1 PUSH2 0xF23 JUMP JUMPDEST PUSH2 0x170 PUSH2 0x337 CALLDATASIZE PUSH1 0x4 PUSH2 0xE3A JUMP JUMPDEST PUSH2 0x606 JUMP JUMPDEST PUSH2 0x1B1 PUSH2 0x34A CALLDATASIZE PUSH1 0x4 PUSH2 0xEA1 JUMP JUMPDEST PUSH2 0x614 JUMP JUMPDEST PUSH2 0x1B1 PUSH32 0x9F2DF0FED2C77648DE5860A4CC508CD0818C85B8B8A1AB4CEEEF8D981C8956A6 DUP2 JUMP JUMPDEST PUSH2 0x22F PUSH2 0x384 CALLDATASIZE PUSH1 0x4 PUSH2 0xEBA JUMP JUMPDEST PUSH2 0x62B JUMP JUMPDEST PUSH2 0x1B1 PUSH2 0x397 CALLDATASIZE PUSH1 0x4 PUSH2 0xF6F JUMP JUMPDEST PUSH1 0x1 PUSH1 0x1 PUSH1 0xA0 SHL SUB SWAP2 DUP3 AND PUSH1 0x0 SWAP1 DUP2 MSTORE PUSH1 0x1 PUSH1 0x20 SWAP1 DUP2 MSTORE PUSH1 0x40 DUP1 DUP4 KECCAK256 SWAP4 SWAP1 SWAP5 AND DUP3 MSTORE SWAP2 SWAP1 SWAP2 MSTORE KECCAK256 SLOAD SWAP1 JUMP JUMPDEST PUSH1 0x0 PUSH1 0x1 PUSH1 0x1 PUSH1 0xE0 SHL SUB NOT DUP3 AND PUSH4 0x5A05180F PUSH1 0xE0 SHL EQ DUP1 PUSH2 0x3E7 JUMPI POP PUSH2 0x3E7 DUP3 PUSH2 0x650 JUMP JUMPDEST SWAP3 SWAP2 POP POP JUMP JUMPDEST PUSH1 0x60 PUSH1 0x3 DUP1 SLOAD PUSH2 0x3FC SWAP1 PUSH2 0xF99 JUMP JUMPDEST DUP1 PUSH1 0x1F ADD PUSH1 0x20 DUP1 SWAP2 DIV MUL PUSH1 0x20 ADD PUSH1 0x40 MLOAD SWAP1 DUP2 ADD PUSH1 0x40 MSTORE DUP1 SWAP3 SWAP2 SWAP1 DUP2 DUP2 MSTORE PUSH1 0x20 ADD DUP3 DUP1 SLOAD PUSH2 0x428 SWAP1 PUSH2 0xF99 JUMP JUMPDEST DUP1 ISZERO PUSH2 0x475 JUMPI DUP1 PUSH1 0x1F LT PUSH2 0x44A JUMPI PUSH2 0x100 DUP1 DUP4 SLOAD DIV MUL DUP4 MSTORE SWAP2 PUSH1 0x20 ADD SWAP2 PUSH2 0x475 JUMP JUMPDEST DUP3 ADD SWAP2 SWAP1 PUSH1 0x0 MSTORE PUSH1 0x20 PUSH1 0x0 KECCAK256 SWAP1 JUMPDEST DUP2 SLOAD DUP2 MSTORE SWAP1 PUSH1 0x1 ADD SWAP1 PUSH1 0x20 ADD DUP1 DUP4 GT PUSH2 0x458 JUMPI DUP3 SWAP1 SUB PUSH1 0x1F AND DUP3 ADD SWAP2 JUMPDEST POP POP POP POP POP SWAP1 POP SWAP1 JUMP JUMPDEST PUSH1 0x0 CALLER PUSH2 0x48D DUP2 DUP6 DUP6 PUSH2 0x685 JUMP JUMPDEST POP PUSH1 0x1 SWAP4 SWAP3 POP POP POP JUMP JUMPDEST PUSH1 0x0 CALLER PUSH2 0x4A5 DUP6 DUP3 DUP6 PUSH2 0x692 JUMP JUMPDEST PUSH2 0x4B0 DUP6 DUP6 DUP6 PUSH2 0x710 JUMP JUMPDEST POP PUSH1 0x1 SWAP5 SWAP4 POP POP POP POP JUMP JUMPDEST PUSH1 0x0 DUP3 DUP2 MSTORE PUSH1 0x5 PUSH1 0x20 MSTORE PUSH1 0x40 SWAP1 KECCAK256 PUSH1 0x1 ADD SLOAD PUSH2 0x4D6 DUP2 PUSH2 0x76F JUMP JUMPDEST PUSH2 0x4E0 DUP4 DUP4 PUSH2 0x779 JUMP JUMPDEST POP POP POP POP JUMP JUMPDEST PUSH1 0x1 PUSH1 0x1 PUSH1 0xA0 SHL SUB DUP2 AND CALLER EQ PUSH2 0x50F JUMPI PUSH1 0x40 MLOAD PUSH4 0x334BD919 PUSH1 0xE1 SHL DUP2 MSTORE PUSH1 0x4 ADD PUSH1 0x40 MLOAD DUP1 SWAP2 SUB SWAP1 REVERT JUMPDEST PUSH2 0x519 DUP3 DUP3 PUSH2 0x7AE JUMP JUMPDEST POP POP POP JUMP JUMPDEST PUSH32 0x9F2DF0FED2C77648DE5860A4CC508CD0818C85B8B8A1AB4CEEEF8D981C8956A6 PUSH2 0x548 DUP2 PUSH2 0x76F JUMP JUMPDEST PUSH2 0x519 DUP4 DUP4 PUSH2 0x7DB JUMP JUMPDEST PUSH2 0x55C CALLER DUP3 PUSH2 0x815 JUMP JUMPDEST POP JUMP JUMPDEST PUSH32 0x3C11D16CBAFFD01DF69CE1C404F6340EE057498F5F00246190EA54220576A848 PUSH2 0x589 DUP2 PUSH2 0x76F JUMP JUMPDEST PUSH2 0x519 DUP4 DUP4 PUSH2 0x84B JUMP JUMPDEST PUSH1 0x0 DUP3 DUP2 MSTORE PUSH1 0x6 PUSH1 0x20 MSTORE PUSH1 0x40 DUP2 KECCAK256 PUSH2 0x5AB SWAP1 DUP4 PUSH2 0x860 JUMP JUMPDEST SWAP4 SWAP3 POP POP POP JUMP JUMPDEST PUSH1 0x0 SWAP2 DUP3 MSTORE PUSH1 0x5 PUSH1 0x20 SWAP1 DUP2 MSTORE PUSH1 0x40 DUP1 DUP5 KECCAK256 PUSH1 0x1 PUSH1 0x1 PUSH1 0xA0 SHL SUB SWAP4 SWAP1 SWAP4 AND DUP5 MSTORE SWAP2 SWAP1 MSTORE SWAP1 KECCAK256 SLOAD PUSH1 0xFF AND SWAP1 JUMP JUMPDEST PUSH1 0x60 PUSH1 0x4 DUP1 SLOAD PUSH2 0x3FC SWAP1 PUSH2 0xF99 JUMP JUMPDEST PUSH1 0x0 DUP2 DUP2 MSTORE PUSH1 0x6 PUSH1 0x20 MSTORE PUSH1 0x40 SWAP1 KECCAK256 PUSH1 0x60 SWAP1 PUSH2 0x3E7 SWAP1 PUSH2 0x86C JUMP JUMPDEST PUSH1 0x0 CALLER PUSH2 0x48D DUP2 DUP6 DUP6 PUSH2 0x710 JUMP JUMPDEST PUSH1 0x0 DUP2 DUP2 MSTORE PUSH1 0x6 PUSH1 0x20 MSTORE PUSH1 0x40 DUP2 KECCAK256 PUSH2 0x3E7 SWAP1 PUSH2 0x879 JUMP JUMPDEST PUSH1 0x0 DUP3 DUP2 MSTORE PUSH1 0x5 PUSH1 0x20 MSTORE PUSH1 0x40 SWAP1 KECCAK256 PUSH1 0x1 ADD SLOAD PUSH2 0x646 DUP2 PUSH2 0x76F JUMP JUMPDEST PUSH2 0x4E0 DUP4 DUP4 PUSH2 0x7AE JUMP JUMPDEST PUSH1 0x0 PUSH1 0x1 PUSH1 0x1 PUSH1 0xE0 SHL SUB NOT DUP3 AND PUSH4 0x7965DB0B PUSH1 0xE0 SHL EQ DUP1 PUSH2 0x3E7 JUMPI POP PUSH4 0x1FFC9A7 PUSH1 0xE0 SHL PUSH1 0x1 PUSH1 0x1 PUSH1 0xE0 SHL SUB NOT DUP4 AND EQ PUSH2 0x3E7 JUMP JUMPDEST PUSH2 0x519 DUP4 DUP4 DUP4 PUSH1 0x1 PUSH2 0x883 JUMP JUMPDEST PUSH1 0x1 PUSH1 0x1 PUSH1 0xA0 SHL SUB DUP4 DUP2 AND PUSH1 0x0 SWAP1 DUP2 MSTORE PUSH1 0x1 PUSH1 0x20 SWAP1 DUP2 MSTORE PUSH1 0x40 DUP1 DUP4 KECCAK256 SWAP4 DUP7 AND DUP4 MSTORE SWAP3 SWAP1 MSTORE KECCAK256 SLOAD PUSH1 0x0 NOT DUP2 LT ISZERO PUSH2 0x4E0 JUMPI DUP2 DUP2 LT ISZERO PUSH2 0x701 JUMPI PUSH1 0x40 MLOAD PUSH4 0x7DC7A0D9 PUSH1 0xE1 SHL DUP2 MSTORE PUSH1 0x1 PUSH1 0x1 PUSH1 0xA0 SHL SUB DUP5 AND PUSH1 0x4 DUP3 ADD MSTORE PUSH1 0x24 DUP2 ADD DUP3 SWAP1 MSTORE PUSH1 0x44 DUP2 ADD DUP4 SWAP1 MSTORE PUSH1 0x64 ADD JUMPDEST PUSH1 0x40 MLOAD DUP1 SWAP2 SUB SWAP1 REVERT JUMPDEST PUSH2 0x4E0 DUP5 DUP5 DUP5 DUP5 SUB PUSH1 0x0 PUSH2 0x883 JUMP JUMPDEST PUSH1 0x1 PUSH1 0x1 PUSH1 0xA0 SHL SUB DUP4 AND PUSH2 0x73A JUMPI PUSH1 0x40 MLOAD PUSH4 0x4B637E8F PUSH1 0xE1 SHL DUP2 MSTORE PUSH1 0x0 PUSH1 0x4 DUP3 ADD MSTORE PUSH1 0x24 ADD PUSH2 0x6F8 JUMP JUMPDEST PUSH1 0x1 PUSH1 0x1 PUSH1 0xA0 SHL SUB DUP3 AND PUSH2 0x764 JUMPI PUSH1 0x40 MLOAD PUSH4 0xEC442F05 PUSH1 0xE0 SHL DUP2 MSTORE PUSH1 0x0 PUSH1 0x4 DUP3 ADD MSTORE PUSH1 0x24 ADD PUSH2 0x6F8 JUMP JUMPDEST PUSH2 0x519 DUP4 DUP4 DUP4 PUSH2 0x958 JUMP JUMPDEST PUSH2 0x55C DUP2 CALLER PUSH2 0xA82 JUMP JUMPDEST PUSH1 0x0 DUP1 PUSH2 0x786 DUP5 DUP5 PUSH2 0xABB JUMP JUMPDEST SWAP1 POP DUP1 ISZERO PUSH2 0x5AB JUMPI PUSH1 0x0 DUP5 DUP2 MSTORE PUSH1 0x6 PUSH1 0x20 MSTORE PUSH1 0x40 SWAP1 KECCAK256 PUSH2 0x7A6 SWAP1 DUP5 PUSH2 0xB4F JUMP JUMPDEST POP SWAP4 SWAP3 POP POP POP JUMP JUMPDEST PUSH1 0x0 DUP1 PUSH2 0x7BB DUP5 DUP5 PUSH2 0xB64 JUMP JUMPDEST SWAP1 POP DUP1 ISZERO PUSH2 0x5AB JUMPI PUSH1 0x0 DUP5 DUP2 MSTORE PUSH1 0x6 PUSH1 0x20 MSTORE PUSH1 0x40 SWAP1 KECCAK256 PUSH2 0x7A6 SWAP1 DUP5 PUSH2 0xBD1 JUMP JUMPDEST PUSH1 0x1 PUSH1 0x1 PUSH1 0xA0 SHL SUB DUP3 AND PUSH2 0x805 JUMPI PUSH1 0x40 MLOAD PUSH4 0xEC442F05 PUSH1 0xE0 SHL DUP2 MSTORE PUSH1 0x0 PUSH1 0x4 DUP3 ADD MSTORE PUSH1 0x24 ADD PUSH2 0x6F8 JUMP JUMPDEST PUSH2 0x811 PUSH1 0x0 DUP4 DUP4 PUSH2 0x958 JUMP JUMPDEST POP POP JUMP JUMPDEST PUSH1 0x1 PUSH1 0x1 PUSH1 0xA0 SHL SUB DUP3 AND PUSH2 0x83F JUMPI PUSH1 0x40 MLOAD PUSH4 0x4B637E8F PUSH1 0xE1 SHL DUP2 MSTORE PUSH1 0x0 PUSH1 0x4 DUP3 ADD MSTORE PUSH1 0x24 ADD PUSH2 0x6F8 JUMP JUMPDEST PUSH2 0x811 DUP3 PUSH1 0x0 DUP4 PUSH2 0x958 JUMP JUMPDEST PUSH2 0x856 DUP3 CALLER DUP4 PUSH2 0x692 JUMP JUMPDEST PUSH2 0x811 DUP3 DUP3 PUSH2 0x815 JUMP JUMPDEST PUSH1 0x0 PUSH2 0x5AB DUP4 DUP4 PUSH2 0xBE6 JUMP JUMPDEST PUSH1 0x60 PUSH1 0x0 PUSH2 0x5AB DUP4 PUSH2 0xC10 JUMP JUMPDEST PUSH1 0x0 PUSH2 0x3E7 DUP3 SLOAD SWAP1 JUMP JUMPDEST PUSH1 0x1 PUSH1 0x1 PUSH1 0xA0 SHL SUB DUP5 AND PUSH2 0x8AD JUMPI PUSH1 0x40 MLOAD PUSH4 0xE602DF05 PUSH1 0xE0 SHL DUP2 MSTORE PUSH1 0x0 PUSH1 0x4 DUP3 ADD MSTORE PUSH1 0x24 ADD PUSH2 0x6F8 JUMP JUMPDEST PUSH1 0x1 PUSH1 0x1 PUSH1 0xA0 SHL SUB DUP4 AND PUSH2 0x8D7 JUMPI PUSH1 0x40 MLOAD PUSH4 0x4A1406B1 PUSH1 0xE1 SHL DUP2 MSTORE PUSH1 0x0 PUSH1 0x4 DUP3 ADD MSTORE PUSH1 0x24 ADD PUSH2 0x6F8 JUMP JUMPDEST PUSH1 0x1 PUSH1 0x1 PUSH1 0xA0 SHL SUB DUP1 DUP6 AND PUSH1 0x0 SWAP1 DUP2 MSTORE PUSH1 0x1 PUSH1 0x20 SWAP1 DUP2 MSTORE PUSH1 0x40 DUP1 DUP4 KECCAK256 SWAP4 DUP8 AND DUP4 MSTORE SWAP3 SWAP1 MSTORE KECCAK256 DUP3 SWAP1 SSTORE DUP1 ISZERO PUSH2 0x4E0 JUMPI DUP3 PUSH1 0x1 PUSH1 0x1 PUSH1 0xA0 SHL SUB AND DUP5 PUSH1 0x1 PUSH1 0x1 PUSH1 0xA0 SHL SUB AND PUSH32 0x8C5BE1E5EBEC7D5BD14F71427D1E84F3DD0314C0F7B2291E5B200AC8C7C3B925 DUP5 PUSH1 0x40 MLOAD PUSH2 0x94A SWAP2 DUP2 MSTORE PUSH1 0x20 ADD SWAP1 JUMP JUMPDEST PUSH1 0x40 MLOAD DUP1 SWAP2 SUB SWAP1 LOG3 POP POP POP POP JUMP JUMPDEST PUSH1 0x1 PUSH1 0x1 PUSH1 0xA0 SHL SUB DUP4 AND PUSH2 0x983 JUMPI DUP1 PUSH1 0x2 PUSH1 0x0 DUP3 DUP3 SLOAD PUSH2 0x978 SWAP2 SWAP1 PUSH2 0xFE9 JUMP JUMPDEST SWAP1 SWAP2 SSTORE POP PUSH2 0x9F5 SWAP1 POP JUMP JUMPDEST PUSH1 0x1 PUSH1 0x1 PUSH1 0xA0 SHL SUB DUP4 AND PUSH1 0x0 SWAP1 DUP2 MSTORE PUSH1 0x20 DUP2 SWAP1 MSTORE PUSH1 0x40 SWAP1 KECCAK256 SLOAD DUP2 DUP2 LT ISZERO PUSH2 0x9D6 JUMPI PUSH1 0x40 MLOAD PUSH4 0x391434E3 PUSH1 0xE2 SHL DUP2 MSTORE PUSH1 0x1 PUSH1 0x1 PUSH1 0xA0 SHL SUB DUP6 AND PUSH1 0x4 DUP3 ADD MSTORE PUSH1 0x24 DUP2 ADD DUP3 SWAP1 MSTORE PUSH1 0x44 DUP2 ADD DUP4 SWAP1 MSTORE PUSH1 0x64 ADD PUSH2 0x6F8 JUMP JUMPDEST PUSH1 0x1 PUSH1 0x1 PUSH1 0xA0 SHL SUB DUP5 AND PUSH1 0x0 SWAP1 DUP2 MSTORE PUSH1 0x20 DUP2 SWAP1 MSTORE PUSH1 0x40 SWAP1 KECCAK256 SWAP1 DUP3 SWAP1 SUB SWAP1 SSTORE JUMPDEST PUSH1 0x1 PUSH1 0x1 PUSH1 0xA0 SHL SUB DUP3 AND PUSH2 0xA11 JUMPI PUSH1 0x2 DUP1 SLOAD DUP3 SWAP1 SUB SWAP1 SSTORE PUSH2 0xA30 JUMP JUMPDEST PUSH1 0x1 PUSH1 0x1 PUSH1 0xA0 SHL SUB DUP3 AND PUSH1 0x0 SWAP1 DUP2 MSTORE PUSH1 0x20 DUP2 SWAP1 MSTORE PUSH1 0x40 SWAP1 KECCAK256 DUP1 SLOAD DUP3 ADD SWAP1 SSTORE JUMPDEST DUP2 PUSH1 0x1 PUSH1 0x1 PUSH1 0xA0 SHL SUB AND DUP4 PUSH1 0x1 PUSH1 0x1 PUSH1 0xA0 SHL SUB AND PUSH32 0xDDF252AD1BE2C89B69C2B068FC378DAA952BA7F163C4A11628F55A4DF523B3EF DUP4 PUSH1 0x40 MLOAD PUSH2 0xA75 SWAP2 DUP2 MSTORE PUSH1 0x20 ADD SWAP1 JUMP JUMPDEST PUSH1 0x40 MLOAD DUP1 SWAP2 SUB SWAP1 LOG3 POP POP POP JUMP JUMPDEST PUSH2 0xA8C DUP3 DUP3 PUSH2 0x5B2 JUMP JUMPDEST PUSH2 0x811 JUMPI PUSH1 0x40 MLOAD PUSH4 0xE2517D3F PUSH1 0xE0 SHL DUP2 MSTORE PUSH1 0x1 PUSH1 0x1 PUSH1 0xA0 SHL SUB DUP3 AND PUSH1 0x4 DUP3 ADD MSTORE PUSH1 0x24 DUP2 ADD DUP4 SWAP1 MSTORE PUSH1 0x44 ADD PUSH2 0x6F8 JUMP JUMPDEST PUSH1 0x0 PUSH2 0xAC7 DUP4 DUP4 PUSH2 0x5B2 JUMP JUMPDEST PUSH2 0xB47 JUMPI PUSH1 0x0 DUP4 DUP2 MSTORE PUSH1 0x5 PUSH1 0x20 SWAP1 DUP2 MSTORE PUSH1 0x40 DUP1 DUP4 KECCAK256 PUSH1 0x1 PUSH1 0x1 PUSH1 0xA0 SHL SUB DUP7 AND DUP5 MSTORE SWAP1 SWAP2 MSTORE SWAP1 KECCAK256 DUP1 SLOAD PUSH1 0xFF NOT AND PUSH1 0x1 OR SWAP1 SSTORE PUSH2 0xAFF CALLER SWAP1 JUMP JUMPDEST PUSH1 0x1 PUSH1 0x1 PUSH1 0xA0 SHL SUB AND DUP3 PUSH1 0x1 PUSH1 0x1 PUSH1 0xA0 SHL SUB AND DUP5 PUSH32 0x2F8788117E7EFF1D82E926EC794901D17C78024A50270940304540A733656F0D PUSH1 0x40 MLOAD PUSH1 0x40 MLOAD DUP1 SWAP2 SUB SWAP1 LOG4 POP PUSH1 0x1 PUSH2 0x3E7 JUMP JUMPDEST POP PUSH1 0x0 PUSH2 0x3E7 JUMP JUMPDEST PUSH1 0x0 PUSH2 0x5AB DUP4 PUSH1 0x1 PUSH1 0x1 PUSH1 0xA0 SHL SUB DUP5 AND PUSH2 0xC6C JUMP JUMPDEST PUSH1 0x0 PUSH2 0xB70 DUP4 DUP4 PUSH2 0x5B2 JUMP JUMPDEST ISZERO PUSH2 0xB47 JUMPI PUSH1 0x0 DUP4 DUP2 MSTORE PUSH1 0x5 PUSH1 0x20 SWAP1 DUP2 MSTORE PUSH1 0x40 DUP1 DUP4 KECCAK256 PUSH1 0x1 PUSH1 0x1 PUSH1 0xA0 SHL SUB DUP7 AND DUP1 DUP6 MSTORE SWAP3 MSTORE DUP1 DUP4 KECCAK256 DUP1 SLOAD PUSH1 0xFF NOT AND SWAP1 SSTORE MLOAD CALLER SWAP3 DUP7 SWAP2 PUSH32 0xF6391F5C32D9C69D2A47EA670B442974B53935D1EDC7FD64EB21E047A839171B SWAP2 SWAP1 LOG4 POP PUSH1 0x1 PUSH2 0x3E7 JUMP JUMPDEST PUSH1 0x0 PUSH2 0x5AB DUP4 PUSH1 0x1 PUSH1 0x1 PUSH1 0xA0 SHL SUB DUP5 AND PUSH2 0xCB3 JUMP JUMPDEST PUSH1 0x0 DUP3 PUSH1 0x0 ADD DUP3 DUP2 SLOAD DUP2 LT PUSH2 0xBFD JUMPI PUSH2 0xBFD PUSH2 0xFFC JUMP JUMPDEST SWAP1 PUSH1 0x0 MSTORE PUSH1 0x20 PUSH1 0x0 KECCAK256 ADD SLOAD SWAP1 POP SWAP3 SWAP2 POP POP JUMP JUMPDEST PUSH1 0x60 DUP2 PUSH1 0x0 ADD DUP1 SLOAD DUP1 PUSH1 0x20 MUL PUSH1 0x20 ADD PUSH1 0x40 MLOAD SWAP1 DUP2 ADD PUSH1 0x40 MSTORE DUP1 SWAP3 SWAP2 SWAP1 DUP2 DUP2 MSTORE PUSH1 0x20 ADD DUP3 DUP1 SLOAD DUP1 ISZERO PUSH2 0xC60 JUMPI PUSH1 0x20 MUL DUP3 ADD SWAP2 SWAP1 PUSH1 0x0 MSTORE PUSH1 0x20 PUSH1 0x0 KECCAK256 SWAP1 JUMPDEST DUP2 SLOAD DUP2 MSTORE PUSH1 0x20 ADD SWAP1 PUSH1 0x1 ADD SWAP1 DUP1 DUP4 GT PUSH2 0xC4C JUMPI JUMPDEST POP POP POP POP POP SWAP1 POP SWAP2 SWAP1 POP JUMP JUMPDEST PUSH1 0x0 DUP2 DUP2 MSTORE PUSH1 0x1 DUP4 ADD PUSH1 0x20 MSTORE PUSH1 0x40 DUP2 KECCAK256 SLOAD PUSH2 0xB47 JUMPI POP DUP2 SLOAD PUSH1 0x1 DUP2 DUP2 ADD DUP5 SSTORE PUSH1 0x0 DUP5 DUP2 MSTORE PUSH1 0x20 DUP1 DUP3 KECCAK256 SWAP1 SWAP4 ADD DUP5 SWAP1 SSTORE DUP5 SLOAD DUP5 DUP3 MSTORE DUP3 DUP7 ADD SWAP1 SWAP4 MSTORE PUSH1 0x40 SWAP1 KECCAK256 SWAP2 SWAP1 SWAP2 SSTORE PUSH2 0x3E7 JUMP JUMPDEST PUSH1 0x0 DUP2 DUP2 MSTORE PUSH1 0x1 DUP4 ADD PUSH1 0x20 MSTORE PUSH1 0x40 DUP2 KECCAK256 SLOAD DUP1 ISZERO PUSH2 0xD9C JUMPI PUSH1 0x0 PUSH2 0xCD7 PUSH1 0x1 DUP4 PUSH2 0x1012 JUMP JUMPDEST DUP6 SLOAD SWAP1 SWAP2 POP PUSH1 0x0 SWAP1 PUSH2 0xCEB SWAP1 PUSH1 0x1 SWAP1 PUSH2 0x1012 JUMP JUMPDEST SWAP1 POP DUP1 DUP3 EQ PUSH2 0xD50 JUMPI PUSH1 0x0 DUP7 PUSH1 0x0 ADD DUP3 DUP2 SLOAD DUP2 LT PUSH2 0xD0B JUMPI PUSH2 0xD0B PUSH2 0xFFC JUMP JUMPDEST SWAP1 PUSH1 0x0 MSTORE PUSH1 0x20 PUSH1 0x0 KECCAK256 ADD SLOAD SWAP1 POP DUP1 DUP8 PUSH1 0x0 ADD DUP5 DUP2 SLOAD DUP2 LT PUSH2 0xD2E JUMPI PUSH2 0xD2E PUSH2 0xFFC JUMP JUMPDEST PUSH1 0x0 SWAP2 DUP3 MSTORE PUSH1 0x20 DUP1 DUP4 KECCAK256 SWAP1 SWAP2 ADD SWAP3 SWAP1 SWAP3 SSTORE SWAP2 DUP3 MSTORE PUSH1 0x1 DUP9 ADD SWAP1 MSTORE PUSH1 0x40 SWAP1 KECCAK256 DUP4 SWAP1 SSTORE JUMPDEST DUP6 SLOAD DUP7 SWAP1 DUP1 PUSH2 0xD61 JUMPI PUSH2 0xD61 PUSH2 0x1025 JUMP JUMPDEST PUSH1 0x1 SWAP1 SUB DUP2 DUP2 SWAP1 PUSH1 0x0 MSTORE PUSH1 0x20 PUSH1 0x0 KECCAK256 ADD PUSH1 0x0 SWAP1 SSTORE SWAP1 SSTORE DUP6 PUSH1 0x1 ADD PUSH1 0x0 DUP7 DUP2 MSTORE PUSH1 0x20 ADD SWAP1 DUP2 MSTORE PUSH1 0x20 ADD PUSH1 0x0 KECCAK256 PUSH1 0x0 SWAP1 SSTORE PUSH1 0x1 SWAP4 POP POP POP POP PUSH2 0x3E7 JUMP JUMPDEST PUSH1 0x0 SWAP2 POP POP PUSH2 0x3E7 JUMP JUMPDEST PUSH1 0x0 PUSH1 0x20 DUP3 DUP5 SUB SLT ISZERO PUSH2 0xDB8 JUMPI PUSH1 0x0 DUP1 REVERT JUMPDEST DUP2 CALLDATALOAD PUSH1 0x1 PUSH1 0x1 PUSH1 0xE0 SHL SUB NOT DUP2 AND DUP2 EQ PUSH2 0x5AB JUMPI PUSH1 0x0 DUP1 REVERT JUMPDEST PUSH1 0x20 DUP2 MSTORE PUSH1 0x0 DUP3 MLOAD DUP1 PUSH1 0x20 DUP5 ADD MSTORE PUSH1 0x0 JUMPDEST DUP2 DUP2 LT ISZERO PUSH2 0xDFE JUMPI PUSH1 0x20 DUP2 DUP7 ADD DUP2 ADD MLOAD PUSH1 0x40 DUP7 DUP5 ADD ADD MSTORE ADD PUSH2 0xDE1 JUMP JUMPDEST POP PUSH1 0x0 PUSH1 0x40 DUP3 DUP6 ADD ADD MSTORE PUSH1 0x40 PUSH1 0x1F NOT PUSH1 0x1F DUP4 ADD AND DUP5 ADD ADD SWAP2 POP POP SWAP3 SWAP2 POP POP JUMP JUMPDEST DUP1 CALLDATALOAD PUSH1 0x1 PUSH1 0x1 PUSH1 0xA0 SHL SUB DUP2 AND DUP2 EQ PUSH2 0xE35 JUMPI PUSH1 0x0 DUP1 REVERT JUMPDEST SWAP2 SWAP1 POP JUMP JUMPDEST PUSH1 0x0 DUP1 PUSH1 0x40 DUP4 DUP6 SUB SLT ISZERO PUSH2 0xE4D JUMPI PUSH1 0x0 DUP1 REVERT JUMPDEST PUSH2 0xE56 DUP4 PUSH2 0xE1E JUMP JUMPDEST SWAP5 PUSH1 0x20 SWAP4 SWAP1 SWAP4 ADD CALLDATALOAD SWAP4 POP POP POP JUMP JUMPDEST PUSH1 0x0 DUP1 PUSH1 0x0 PUSH1 0x60 DUP5 DUP7 SUB SLT ISZERO PUSH2 0xE79 JUMPI PUSH1 0x0 DUP1 REVERT JUMPDEST PUSH2 0xE82 DUP5 PUSH2 0xE1E JUMP JUMPDEST SWAP3 POP PUSH2 0xE90 PUSH1 0x20 DUP6 ADD PUSH2 0xE1E JUMP JUMPDEST SWAP3 SWAP6 SWAP3 SWAP5 POP POP POP PUSH1 0x40 SWAP2 SWAP1 SWAP2 ADD CALLDATALOAD SWAP1 JUMP JUMPDEST PUSH1 0x0 PUSH1 0x20 DUP3 DUP5 SUB SLT ISZERO PUSH2 0xEB3 JUMPI PUSH1 0x0 DUP1 REVERT JUMPDEST POP CALLDATALOAD SWAP2 SWAP1 POP JUMP JUMPDEST PUSH1 0x0 DUP1 PUSH1 0x40 DUP4 DUP6 SUB SLT ISZERO PUSH2 0xECD JUMPI PUSH1 0x0 DUP1 REVERT JUMPDEST DUP3 CALLDATALOAD SWAP2 POP PUSH2 0xEDD PUSH1 0x20 DUP5 ADD PUSH2 0xE1E JUMP JUMPDEST SWAP1 POP SWAP3 POP SWAP3 SWAP1 POP JUMP JUMPDEST PUSH1 0x0 PUSH1 0x20 DUP3 DUP5 SUB SLT ISZERO PUSH2 0xEF8 JUMPI PUSH1 0x0 DUP1 REVERT JUMPDEST PUSH2 0x5AB DUP3 PUSH2 0xE1E JUMP JUMPDEST PUSH1 0x0 DUP1 PUSH1 0x40 DUP4 DUP6 SUB SLT ISZERO PUSH2 0xF14 JUMPI PUSH1 0x0 DUP1 REVERT JUMPDEST POP POP DUP1 CALLDATALOAD SWAP3 PUSH1 0x20 SWAP1 SWAP2 ADD CALLDATALOAD SWAP2 POP JUMP JUMPDEST PUSH1 0x20 DUP1 DUP3 MSTORE DUP3 MLOAD DUP3 DUP3 ADD DUP2 SWAP1 MSTORE PUSH1 0x0 SWAP2 DUP5 ADD SWAP1 PUSH1 0x40 DUP5 ADD SWAP1 DUP4 JUMPDEST DUP2 DUP2 LT ISZERO PUSH2 0xF64 JUMPI DUP4 MLOAD PUSH1 0x1 PUSH1 0x1 PUSH1 0xA0 SHL SUB AND DUP4 MSTORE PUSH1 0x20 SWAP4 DUP5 ADD SWAP4 SWAP1 SWAP3 ADD SWAP2 PUSH1 0x1 ADD PUSH2 0xF3D JUMP JUMPDEST POP SWAP1 SWAP6 SWAP5 POP POP POP POP POP JUMP JUMPDEST PUSH1 0x0 DUP1 PUSH1 0x40 DUP4 DUP6 SUB SLT ISZERO PUSH2 0xF82 JUMPI PUSH1 0x0 DUP1 REVERT JUMPDEST PUSH2 0xF8B DUP4 PUSH2 0xE1E JUMP JUMPDEST SWAP2 POP PUSH2 0xEDD PUSH1 0x20 DUP5 ADD PUSH2 0xE1E JUMP JUMPDEST PUSH1 0x1 DUP2 DUP2 SHR SWAP1 DUP3 AND DUP1 PUSH2 0xFAD JUMPI PUSH1 0x7F DUP3 AND SWAP2 POP JUMPDEST PUSH1 0x20 DUP3 LT DUP2 SUB PUSH2 0xFCD JUMPI PUSH4 0x4E487B71 PUSH1 0xE0 SHL PUSH1 0x0 MSTORE PUSH1 0x22 PUSH1 0x4 MSTORE PUSH1 0x24 PUSH1 0x0 REVERT JUMPDEST POP SWAP2 SWAP1 POP JUMP JUMPDEST PUSH4 0x4E487B71 PUSH1 0xE0 SHL PUSH1 0x0 MSTORE PUSH1 0x11 PUSH1 0x4 MSTORE PUSH1 0x24 PUSH1 0x0 REVERT JUMPDEST DUP1 DUP3 ADD DUP1 DUP3 GT ISZERO PUSH2 0x3E7 JUMPI PUSH2 0x3E7 PUSH2 0xFD3 JUMP JUMPDEST PUSH4 0x4E487B71 PUSH1 0xE0 SHL PUSH1 0x0 MSTORE PUSH1 0x32 PUSH1 0x4 MSTORE PUSH1 0x24 PUSH1 0x0 REVERT JUMPDEST DUP2 DUP2 SUB DUP2 DUP2 GT ISZERO PUSH2 0x3E7 JUMPI PUSH2 0x3E7 PUSH2 0xFD3 JUMP JUMPDEST PUSH4 0x4E487B71 PUSH1 0xE0 SHL PUSH1 0x0 MSTORE PUSH1 0x31 PUSH1 0x4 MSTORE PUSH1 0x24 PUSH1 0x0 REVERT INVALID LOG2 PUSH5 0x6970667358 0x22 SLT KECCAK256 0xD3 SSTORE 0xB8 CALL SWAP3 0xC5 0xD8 0x2E LOG0 SUB LOG2 0xBD 0xE 0xA9 SWAP14 0xD1 PUSH14 0x5C2E7B93B60CF8D1AA85B68840A4 0xD5 PUSH5 0x736F6C6343 STOP ADDMOD SHR STOP CALLER LOG2 PUSH5 0x6970667358 0x22 SLT KECCAK256 0xF 0x4C 0xDC SWAP8 0xE0 PUSH2 0x5EDD XOR 0xAD 0xD9 0xD1 0xDE 0xEE GASPRICE PUSH12 0x13D7C45D2A310CE55888AE68 PUSH17 0x7D1BA964736F6C634300081C0033000000 "},"methodIdentifiers":{"allSynths(uint256)":"8d015d22","createSynth(string,string,uint8)":"2584b3aa","getAllSynthsCount()":"dddde17a","getSynthAtIndex(uint256)":"734d7a0e","getSynthBySymbol(string)":"d9a07bc9","owner()":"8da5cb5b","renounceOwnership()":"715018a6","synthBySymbol(string)":"14cd6c6d","transferOwnership(address)":"f2fde38b","vault()":"fbfa77cf"}}}}}