{
  "_format": "hh-sol-artifact-1",
  "contractName": "Vault",
  "sourceName": "contracts/Vault.sol",
  "abi": [
    {
      "inputs": [
        {
          "internalType": "address",
          "name": "_usdcAddress",
          "type": "address"
        },
        {
          "internalType": "address",
          "name": "_cxptTokenAddress",
          "type": "address"
        },
        {
          "internalType": "address",
          "name": "_coreAddress",
          "type": "address"
        },
        {
          "internalType": "address",
          "name": "_gatewayAddress",
          "type": "address"
        }
      ],
      "stateMutability": "nonpayable",
      "type": "constructor"
    },
    {
      "inputs": [],
      "name": "AccessControlBadConfirmation",
      "type": "error"
    },
    {
      "inputs": [
        {
          "internalType": "address",
          "name": "account",
          "type": "address"
        },
        {
          "internalType": "bytes32",
          "name": "neededRole",
          "type": "bytes32"
        }
      ],
      "name": "AccessControlUnauthorizedAccount",
      "type": "error"
    },
    {
      "anonymous": false,
      "inputs": [
        {
          "indexed": true,
          "internalType": "address",
          "name": "coreAddress",
          "type": "address"
        },
        {
          "indexed": true,
          "internalType": "address",
          "name": "userWallet",
          "type": "address"
        },
        {
          "indexed": false,
          "internalType": "uint256",
          "name": "usdcAmount",
          "type": "uint256"
        }
      ],
      "name": "DepositedUSDC",
      "type": "event"
    },
    {
      "anonymous": false,
      "inputs": [
        {
          "indexed": true,
          "internalType": "address",
          "name": "coreAddress",
          "type": "address"
        },
        {
          "indexed": false,
          "internalType": "uint256",
          "name": "usdcFeeAmount",
          "type": "uint256"
        }
      ],
      "name": "FeesRecorded",
      "type": "event"
    },
    {
      "anonymous": false,
      "inputs": [
        {
          "indexed": true,
          "internalType": "address",
          "name": "admin",
          "type": "address"
        },
        {
          "indexed": true,
          "internalType": "address",
          "name": "to",
          "type": "address"
        },
        {
          "indexed": false,
          "internalType": "uint256",
          "name": "usdcAmount",
          "type": "uint256"
        }
      ],
      "name": "FeesWithdrawn",
      "type": "event"
    },
    {
      "anonymous": false,
      "inputs": [
        {
          "indexed": true,
          "internalType": "bytes32",
          "name": "role",
          "type": "bytes32"
        },
        {
          "indexed": true,
          "internalType": "bytes32",
          "name": "previousAdminRole",
          "type": "bytes32"
        },
        {
          "indexed": true,
          "internalType": "bytes32",
          "name": "newAdminRole",
          "type": "bytes32"
        }
      ],
      "name": "RoleAdminChanged",
      "type": "event"
    },
    {
      "anonymous": false,
      "inputs": [
        {
          "indexed": true,
          "internalType": "bytes32",
          "name": "role",
          "type": "bytes32"
        },
        {
          "indexed": true,
          "internalType": "address",
          "name": "account",
          "type": "address"
        },
        {
          "indexed": true,
          "internalType": "address",
          "name": "sender",
          "type": "address"
        }
      ],
      "name": "RoleGranted",
      "type": "event"
    },
    {
      "anonymous": false,
      "inputs": [
        {
          "indexed": true,
          "internalType": "bytes32",
          "name": "role",
          "type": "bytes32"
        },
        {
          "indexed": true,
          "internalType": "address",
          "name": "account",
          "type": "address"
        },
        {
          "indexed": true,
          "internalType": "address",
          "name": "sender",
          "type": "address"
        }
      ],
      "name": "RoleRevoked",
      "type": "event"
    },
    {
      "anonymous": false,
      "inputs": [
        {
          "indexed": true,
          "internalType": "address",
          "name": "coreAddress",
          "type": "address"
        },
        {
          "indexed": true,
          "internalType": "address",
          "name": "userWallet",
          "type": "address"
        },
        {
          "indexed": true,
          "internalType": "address",
          "name": "sAssetContract",
          "type": "address"
        },
        {
          "indexed": false,
          "internalType": "uint256",
          "name": "sAssetAmountBurned",
          "type": "uint256"
        },
        {
          "indexed": false,
          "internalType": "uint256",
          "name": "usdcAmountReceived",
          "type": "uint256"
        }
      ],
      "name": "SAssetToUSDCExchanged",
      "type": "event"
    },
    {
      "anonymous": false,
      "inputs": [
        {
          "indexed": true,
          "internalType": "address",
          "name": "userWallet",
          "type": "address"
        },
        {
          "indexed": true,
          "internalType": "address",
          "name": "synthContract",
          "type": "address"
        },
        {
          "indexed": false,
          "internalType": "uint256",
          "name": "sAssetAmount",
          "type": "uint256"
        }
      ],
      "name": "SynthDepositedToVault",
      "type": "event"
    },
    {
      "anonymous": false,
      "inputs": [
        {
          "indexed": true,
          "internalType": "address",
          "name": "registrar",
          "type": "address"
        },
        {
          "indexed": true,
          "internalType": "address",
          "name": "synthContract",
          "type": "address"
        }
      ],
      "name": "SynthRegistered",
      "type": "event"
    },
    {
      "anonymous": false,
      "inputs": [
        {
          "indexed": true,
          "internalType": "address",
          "name": "coreAddress",
          "type": "address"
        },
        {
          "indexed": true,
          "internalType": "address",
          "name": "userWallet",
          "type": "address"
        },
        {
          "indexed": true,
          "internalType": "address",
          "name": "synthContract",
          "type": "address"
        },
        {
          "indexed": false,
          "internalType": "uint256",
          "name": "sAssetAmount",
          "type": "uint256"
        }
      ],
      "name": "SynthWithdrawnFromVault",
      "type": "event"
    },
    {
      "anonymous": false,
      "inputs": [
        {
          "indexed": true,
          "internalType": "address",
          "name": "coreAddress",
          "type": "address"
        },
        {
          "indexed": true,
          "internalType": "address",
          "name": "userWallet",
          "type": "address"
        },
        {
          "indexed": true,
          "internalType": "address",
          "name": "sAssetContract",
          "type": "address"
        },
        {
          "indexed": false,
          "internalType": "uint256",
          "name": "usdcAmountSpent",
          "type": "uint256"
        },
        {
          "indexed": false,
          "internalType": "uint256",
          "name": "sAssetAmountMinted",
          "type": "uint256"
        }
      ],
      "name": "USDCToSAssetExchanged",
      "type": "event"
    },
    {
      "anonymous": false,
      "inputs": [
        {
          "indexed": true,
          "internalType": "address",
          "name": "coreAddress",
          "type": "address"
        },
        {
          "indexed": true,
          "internalType": "address",
          "name": "userWallet",
          "type": "address"
        },
        {
          "indexed": false,
          "internalType": "uint256",
          "name": "cxptAmount",
          "type": "uint256"
        }
      ],
      "name": "WithdrawnCXPT",
      "type": "event"
    },
    {
      "anonymous": false,
      "inputs": [
        {
          "indexed": true,
          "internalType": "address",
          "name": "coreAddress",
          "type": "address"
        },
        {
          "indexed": true,
          "internalType": "address",
          "name": "userWallet",
          "type": "address"
        },
        {
          "indexed": false,
          "internalType": "uint256",
          "name": "usdcAmount",
          "type": "uint256"
        }
      ],
      "name": "WithdrawnUSDC",
      "type": "event"
    },
    {
      "inputs": [],
      "name": "ADMIN_ROLE",
      "outputs": [
        {
          "internalType": "bytes32",
          "name": "",
          "type": "bytes32"
        }
      ],
      "stateMutability": "view",
      "type": "function"
    },
    {
      "inputs": [],
      "name": "CORE_ROLE",
      "outputs": [
        {
          "internalType": "bytes32",
          "name": "",
          "type": "bytes32"
        }
      ],
      "stateMutability": "view",
      "type": "function"
    },
    {
      "inputs": [],
      "name": "DEFAULT_ADMIN_ROLE",
      "outputs": [
        {
          "internalType": "bytes32",
          "name": "",
          "type": "bytes32"
        }
      ],
      "stateMutability": "view",
      "type": "function"
    },
    {
      "inputs": [],
      "name": "GATEWAY_ROLE",
      "outputs": [
        {
          "internalType": "bytes32",
          "name": "",
          "type": "bytes32"
        }
      ],
      "stateMutability": "view",
      "type": "function"
    },
    {
      "inputs": [],
      "name": "cxptToken",
      "outputs": [
        {
          "internalType": "contract CXPTToken",
          "name": "",
          "type": "address"
        }
      ],
      "stateMutability": "view",
      "type": "function"
    },
    {
      "inputs": [
        {
          "internalType": "address",
          "name": "userWallet",
          "type": "address"
        },
        {
          "internalType": "address",
          "name": "synthContract",
          "type": "address"
        },
        {
          "internalType": "uint256",
          "name": "sAssetAmount",
          "type": "uint256"
        }
      ],
      "name": "depositSynthToVault",
      "outputs": [],
      "stateMutability": "nonpayable",
      "type": "function"
    },
    {
      "inputs": [
        {
          "internalType": "address",
          "name": "userWallet",
          "type": "address"
        },
        {
          "internalType": "uint256",
          "name": "usdcAmount",
          "type": "uint256"
        }
      ],
      "name": "depositUSDC",
      "outputs": [],
      "stateMutability": "nonpayable",
      "type": "function"
    },
    {
      "inputs": [
        {
          "internalType": "address",
          "name": "userWallet",
          "type": "address"
        },
        {
          "internalType": "address",
          "name": "sAssetContract",
          "type": "address"
        },
        {
          "internalType": "uint256",
          "name": "sAssetAmountToSpend",
          "type": "uint256"
        },
        {
          "internalType": "uint256",
          "name": "usdcAmountToCredit",
          "type": "uint256"
        }
      ],
      "name": "exchangeSAssetToUSDC",
      "outputs": [],
      "stateMutability": "nonpayable",
      "type": "function"
    },
    {
      "inputs": [
        {
          "internalType": "address",
          "name": "userWallet",
          "type": "address"
        },
        {
          "internalType": "address",
          "name": "sAssetContract",
          "type": "address"
        },
        {
          "internalType": "uint256",
          "name": "usdcAmountToSpend",
          "type": "uint256"
        },
        {
          "internalType": "uint256",
          "name": "sAssetAmountToMint",
          "type": "uint256"
        }
      ],
      "name": "exchangeUSDCToSAsset",
      "outputs": [],
      "stateMutability": "nonpayable",
      "type": "function"
    },
    {
      "inputs": [],
      "name": "getCXPTTokenAddress",
      "outputs": [
        {
          "internalType": "address",
          "name": "",
          "type": "address"
        }
      ],
      "stateMutability": "view",
      "type": "function"
    },
    {
      "inputs": [
        {
          "internalType": "bytes32",
          "name": "role",
          "type": "bytes32"
        }
      ],
      "name": "getRoleAdmin",
      "outputs": [
        {
          "internalType": "bytes32",
          "name": "",
          "type": "bytes32"
        }
      ],
      "stateMutability": "view",
      "type": "function"
    },
    {
      "inputs": [
        {
          "internalType": "bytes32",
          "name": "role",
          "type": "bytes32"
        },
        {
          "internalType": "uint256",
          "name": "index",
          "type": "uint256"
        }
      ],
      "name": "getRoleMember",
      "outputs": [
        {
          "internalType": "address",
          "name": "",
          "type": "address"
        }
      ],
      "stateMutability": "view",
      "type": "function"
    },
    {
      "inputs": [
        {
          "internalType": "bytes32",
          "name": "role",
          "type": "bytes32"
        }
      ],
      "name": "getRoleMemberCount",
      "outputs": [
        {
          "internalType": "uint256",
          "name": "",
          "type": "uint256"
        }
      ],
      "stateMutability": "view",
      "type": "function"
    },
    {
      "inputs": [
        {
          "internalType": "bytes32",
          "name": "role",
          "type": "bytes32"
        }
      ],
      "name": "getRoleMembers",
      "outputs": [
        {
          "internalType": "address[]",
          "name": "",
          "type": "address[]"
        }
      ],
      "stateMutability": "view",
      "type": "function"
    },
    {
      "inputs": [],
      "name": "getUSDCTokenAddress",
      "outputs": [
        {
          "internalType": "address",
          "name": "",
          "type": "address"
        }
      ],
      "stateMutability": "view",
      "type": "function"
    },
    {
      "inputs": [
        {
          "internalType": "bytes32",
          "name": "role",
          "type": "bytes32"
        },
        {
          "internalType": "address",
          "name": "account",
          "type": "address"
        }
      ],
      "name": "grantRole",
      "outputs": [],
      "stateMutability": "nonpayable",
      "type": "function"
    },
    {
      "inputs": [
        {
          "internalType": "bytes32",
          "name": "role",
          "type": "bytes32"
        },
        {
          "internalType": "address",
          "name": "account",
          "type": "address"
        }
      ],
      "name": "hasRole",
      "outputs": [
        {
          "internalType": "bool",
          "name": "",
          "type": "bool"
        }
      ],
      "stateMutability": "view",
      "type": "function"
    },
    {
      "inputs": [
        {
          "internalType": "address",
          "name": "",
          "type": "address"
        }
      ],
      "name": "isRegisteredSynth",
      "outputs": [
        {
          "internalType": "bool",
          "name": "",
          "type": "bool"
        }
      ],
      "stateMutability": "view",
      "type": "function"
    },
    {
      "inputs": [
        {
          "internalType": "uint256",
          "name": "usdcFeeAmount",
          "type": "uint256"
        }
      ],
      "name": "recordFees",
      "outputs": [],
      "stateMutability": "nonpayable",
      "type": "function"
    },
    {
      "inputs": [
        {
          "internalType": "address",
          "name": "synthContract",
          "type": "address"
        }
      ],
      "name": "registerSynth",
      "outputs": [],
      "stateMutability": "nonpayable",
      "type": "function"
    },
    {
      "inputs": [
        {
          "internalType": "bytes32",
          "name": "role",
          "type": "bytes32"
        },
        {
          "internalType": "address",
          "name": "callerConfirmation",
          "type": "address"
        }
      ],
      "name": "renounceRole",
      "outputs": [],
      "stateMutability": "nonpayable",
      "type": "function"
    },
    {
      "inputs": [
        {
          "internalType": "bytes32",
          "name": "role",
          "type": "bytes32"
        },
        {
          "internalType": "address",
          "name": "account",
          "type": "address"
        }
      ],
      "name": "revokeRole",
      "outputs": [],
      "stateMutability": "nonpayable",
      "type": "function"
    },
    {
      "inputs": [
        {
          "internalType": "bytes4",
          "name": "interfaceId",
          "type": "bytes4"
        }
      ],
      "name": "supportsInterface",
      "outputs": [
        {
          "internalType": "bool",
          "name": "",
          "type": "bool"
        }
      ],
      "stateMutability": "view",
      "type": "function"
    },
    {
      "inputs": [],
      "name": "totalFeesCollectedUSDC",
      "outputs": [
        {
          "internalType": "uint256",
          "name": "",
          "type": "uint256"
        }
      ],
      "stateMutability": "view",
      "type": "function"
    },
    {
      "inputs": [],
      "name": "usdcToken",
      "outputs": [
        {
          "internalType": "contract IERC20",
          "name": "",
          "type": "address"
        }
      ],
      "stateMutability": "view",
      "type": "function"
    },
    {
      "inputs": [
        {
          "internalType": "address",
          "name": "userWallet",
          "type": "address"
        },
        {
          "internalType": "uint256",
          "name": "amount",
          "type": "uint256"
        },
        {
          "internalType": "bool",
          "name": "withdrawAsCxpt",
          "type": "bool"
        }
      ],
      "name": "withdraw",
      "outputs": [],
      "stateMutability": "nonpayable",
      "type": "function"
    },
    {
      "inputs": [
        {
          "internalType": "address",
          "name": "to",
          "type": "address"
        },
        {
          "internalType": "uint256",
          "name": "usdcAmount",
          "type": "uint256"
        }
      ],
      "name": "withdrawFees",
      "outputs": [],
      "stateMutability": "nonpayable",
      "type": "function"
    },
    {
      "inputs": [
        {
          "internalType": "address",
          "name": "userWallet",
          "type": "address"
        },
        {
          "internalType": "address",
          "name": "synthContract",
          "type": "address"
        },
        {
          "internalType": "uint256",
          "name": "sAssetAmount",
          "type": "uint256"
        }
      ],
      "name": "withdrawSynthFromVault",
      "outputs": [],
      "stateMutability": "nonpayable",
      "type": "function"
    }
  ],
  "bytecode": "0x60c060405234801561001057600080fd5b506040516123e03803806123e083398101604081905261002f9161038a565b6001600160a01b03841661008a5760405162461bcd60e51b815260206004820152601b60248201527f5661756c743a20496e76616c696420555344432061646472657373000000000060448201526064015b60405180910390fd5b6001600160a01b0383166100e05760405162461bcd60e51b815260206004820152601b60248201527f5661756c743a20496e76616c69642043585054206164647265737300000000006044820152606401610081565b6001600160a01b0382166101365760405162461bcd60e51b815260206004820152601b60248201527f5661756c743a20496e76616c696420436f7265206164647265737300000000006044820152606401610081565b6001600160a01b03811661018c5760405162461bcd60e51b815260206004820152601e60248201527f5661756c743a20496e76616c69642047617465776179206164647265737300006044820152606401610081565b6001600160a01b03808516608052831660a0526101aa600033610235565b506101d57fa49807205ce4d355092ef5a8a18f56e8913cf4a201fbe287825b095693c2177533610235565b506102007f502d3d275257923b2bea6ea25d9631f12369fb532871f13eb85eb09dc0fb484283610235565b5061022b7fb90e9995c6170fff8ea03e9ad6919878e483770c237f1a6f330ceaa7112b344a82610235565b50505050506103de565b600080610242848461026d565b905080156102645760008481526001602052604090206102629084610317565b505b90505b92915050565b6000828152602081815260408083206001600160a01b038516845290915281205460ff1661030f576000838152602081815260408083206001600160a01b03861684529091529020805460ff191660011790556102c73390565b6001600160a01b0316826001600160a01b0316847f2f8788117e7eff1d82e926ec794901d17c78024a50270940304540a733656f0d60405160405180910390a4506001610267565b506000610267565b6000610264836001600160a01b038416600081815260018301602052604081205461030f57508154600181810184556000848152602080822090930184905584548482528286019093526040902091909155610267565b80516001600160a01b038116811461038557600080fd5b919050565b600080600080608085870312156103a057600080fd5b6103a98561036e565b93506103b76020860161036e565b92506103c56040860161036e565b91506103d36060860161036e565b905092959194509250565b60805160a051611f906104506000396000818161022d015281816102fc01526115250152600081816101f301528181610256015281816108960152818161099501528181610b3801528181610ef1015281816112280152818161134c015281816115dd01526116ce0152611f906000f3fe608060405234801561001057600080fd5b50600436106101c45760003560e01c806375b238fc116100f9578063c50d6dd911610097578063d547741f11610071578063d547741f14610458578063d68ceed81461046b578063ead5d3591461047e578063f36246d11461049157600080fd5b8063c50d6dd914610415578063c70908181461043c578063ca15c8731461044557600080fd5b8063a217fddf116100d3578063a217fddf146103c7578063a3246ad3146103cf578063ace5398a146103ef578063ad3b1b471461040257600080fd5b806375b238fc1461037a5780639010d07c146103a157806391d14854146103b457600080fd5b806336568abe1161016657806344ba2b241161014057806344ba2b241461031e5780634d394279146103315780634e2c151f1461035457806356b22bf21461036757600080fd5b806336568abe146102d15780633ab5ef82146102e45780633fa4d814146102f757600080fd5b806311eac855116101a257806311eac85514610251578063248a9ca3146102785780632a314e05146102a95780632f2ff15d146102be57600080fd5b806301ffc9a7146101c95780630c8a95b2146101f15780630e8f61a71461022b575b600080fd5b6101dc6101d7366004611b64565b6104a6565b60405190151581526020015b60405180910390f35b7f00000000000000000000000000000000000000000000000000000000000000005b6040516001600160a01b0390911681526020016101e8565b7f0000000000000000000000000000000000000000000000000000000000000000610213565b6102137f000000000000000000000000000000000000000000000000000000000000000081565b61029b610286366004611b8e565b60009081526020819052604090206001015490565b6040519081526020016101e8565b6102bc6102b7366004611bc3565b6104d1565b005b6102bc6102cc366004611c00565b610705565b6102bc6102df366004611c00565b610730565b6102bc6102f2366004611c2c565b610768565b6102137f000000000000000000000000000000000000000000000000000000000000000081565b6102bc61032c366004611c2c565b610a56565b6101dc61033f366004611c6e565b60026020526000908152604090205460ff1681565b6102bc610362366004611bc3565b610caf565b6102bc610375366004611c89565b610e67565b61029b7fa49807205ce4d355092ef5a8a18f56e8913cf4a201fbe287825b095693c2177581565b6102136103af366004611cb3565b610ff0565b6101dc6103c2366004611c00565b61100f565b61029b600081565b6103e26103dd366004611b8e565b611038565b6040516101e89190611cd5565b6102bc6103fd366004611c6e565b611052565b6102bc610410366004611c89565b611120565b61029b7fb90e9995c6170fff8ea03e9ad6919878e483770c237f1a6f330ceaa7112b344a81565b61029b60035481565b61029b610453366004611b8e565b6113f7565b6102bc610466366004611c00565b61140e565b6102bc610479366004611b8e565b611433565b6102bc61048c366004611d2f565b61149b565b61029b600080516020611f3b83398151915281565b60006001600160e01b03198216635a05180f60e01b14806104cb57506104cb82611779565b92915050565b600080516020611f3b8339815191526104e9816117ae565b6001600160a01b0384166105185760405162461bcd60e51b815260040161050f90611d6f565b60405180910390fd5b6001600160a01b03831660009081526002602052604090205460ff166105505760405162461bcd60e51b815260040161050f90611da6565b600082116105705760405162461bcd60e51b815260040161050f90611ddd565b6040516370a0823160e01b815230600482015282906001600160a01b038516906370a0823190602401602060405180830381865afa1580156105b6573d6000803e3d6000fd5b505050506040513d601f19601f820116820180604052508101906105da9190611e14565b10156106345760405162461bcd60e51b815260206004820152602360248201527f5661756c743a20496e73756666696369656e742073415353455420696e2056616044820152621d5b1d60ea1b606482015260840161050f565b60405163a9059cbb60e01b81526001600160a01b0385811660048301526024820184905284169063a9059cbb906044016020604051808303816000875af1158015610683573d6000803e3d6000fd5b505050506040513d601f19601f820116820180604052508101906106a79190611e2d565b50826001600160a01b0316846001600160a01b0316336001600160a01b03167f1adf7c474f4d4c8c8c445ac7bb8ddfd2ac3bc3d69602e520973e1e130b35d059856040516106f791815260200190565b60405180910390a450505050565b600082815260208190526040902060010154610720816117ae565b61072a83836117bb565b50505050565b6001600160a01b03811633146107595760405163334bd91960e11b815260040160405180910390fd5b61076382826117f0565b505050565b600080516020611f3b833981519152610780816117ae565b6001600160a01b0385166107a65760405162461bcd60e51b815260040161050f90611d6f565b6001600160a01b03841660009081526002602052604090205460ff166107de5760405162461bcd60e51b815260040161050f90611da6565b600083116107fe5760405162461bcd60e51b815260040161050f90611e4a565b6000821161081e5760405162461bcd60e51b815260040161050f90611e8f565b60405163079cc67960e41b81526001600160a01b038681166004830152602482018590528516906379cc679090604401600060405180830381600087803b15801561086857600080fd5b505af115801561087c573d6000803e3d6000fd5b50506040516370a0823160e01b81523060048201528492507f00000000000000000000000000000000000000000000000000000000000000006001600160a01b031691506370a0823190602401602060405180830381865afa1580156108e6573d6000803e3d6000fd5b505050506040513d601f19601f8201168201806040525081019061090a9190611e14565b101561096f5760405162461bcd60e51b815260206004820152602e60248201527f5661756c743a20496e73756666696369656e74205553444320696e205661756c60448201526d7420666f722065786368616e676560901b606482015260840161050f565b60405163a9059cbb60e01b81526001600160a01b038681166004830152602482018490527f0000000000000000000000000000000000000000000000000000000000000000169063a9059cbb906044016020604051808303816000875af11580156109de573d6000803e3d6000fd5b505050506040513d601f19601f82011682018060405250810190610a029190611e2d565b5060408051848152602081018490526001600160a01b03808716929088169133917f9b25b321600b34289c3cbb5c981301c953b6444e24e29b07642438020357470491015b60405180910390a45050505050565b600080516020611f3b833981519152610a6e816117ae565b6001600160a01b038516610a945760405162461bcd60e51b815260040161050f90611d6f565b6001600160a01b03841660009081526002602052604090205460ff16610acc5760405162461bcd60e51b815260040161050f90611da6565b60008311610aec5760405162461bcd60e51b815260040161050f90611e8f565b60008211610b0c5760405162461bcd60e51b815260040161050f90611e4a565b6040516323b872dd60e01b81526001600160a01b038681166004830152306024830152604482018590527f000000000000000000000000000000000000000000000000000000000000000016906323b872dd906064016020604051808303816000875af1158015610b81573d6000803e3d6000fd5b505050506040513d601f19601f82011682018060405250810190610ba59190611e2d565b610c065760405162461bcd60e51b815260206004820152602c60248201527f5661756c743a2055534443207472616e7366657246726f6d20666f722065786360448201526b1a185b99d94819985a5b195960a21b606482015260840161050f565b6040516340c10f1960e01b81526001600160a01b038681166004830152602482018490528516906340c10f1990604401600060405180830381600087803b158015610c5057600080fd5b505af1158015610c64573d6000803e3d6000fd5b505060408051868152602081018690526001600160a01b0380891694508916925033917f0f98fef012e390f285dc060967b20ecc02d87aeb79d028669963fa048e07d5bd9101610a47565b600080516020611f3b833981519152610cc7816117ae565b6001600160a01b038416610ced5760405162461bcd60e51b815260040161050f90611d6f565b6001600160a01b03831660009081526002602052604090205460ff16610d255760405162461bcd60e51b815260040161050f90611da6565b60008211610d455760405162461bcd60e51b815260040161050f90611ddd565b6040516323b872dd60e01b81526001600160a01b038581166004830152306024830152604482018490528416906323b872dd906064016020604051808303816000875af1158015610d9a573d6000803e3d6000fd5b505050506040513d601f19601f82011682018060405250810190610dbe9190611e2d565b610e145760405162461bcd60e51b815260206004820152602160248201527f5661756c743a20734153534554207472616e7366657246726f6d206661696c656044820152601960fa1b606482015260840161050f565b826001600160a01b0316846001600160a01b03167f8f6bb1fe8136c1d257d77e7a1e5be2c656c9971040cbbf7cce283eb69a72989784604051610e5991815260200190565b60405180910390a350505050565b600080516020611f3b833981519152610e7f816117ae565b6001600160a01b038316610ea55760405162461bcd60e51b815260040161050f90611d6f565b60008211610ec55760405162461bcd60e51b815260040161050f90611ddd565b6040516323b872dd60e01b81526001600160a01b038481166004830152306024830152604482018490527f000000000000000000000000000000000000000000000000000000000000000016906323b872dd906064016020604051808303816000875af1158015610f3a573d6000803e3d6000fd5b505050506040513d601f19601f82011682018060405250810190610f5e9190611e2d565b610faa5760405162461bcd60e51b815260206004820152601f60248201527f5661756c743a2055534443207472616e7366657246726f6d206661696c656400604482015260640161050f565b6040518281526001600160a01b0384169033907f5a860befdd305e7d99e384272a4b82aab613eab23cc3070774a4a8cc0f168100906020015b60405180910390a3505050565b6000828152600160205260408120611008908361181d565b9392505050565b6000918252602082815260408084206001600160a01b0393909316845291905290205460ff1690565b60008181526001602052604090206060906104cb90611829565b7fb90e9995c6170fff8ea03e9ad6919878e483770c237f1a6f330ceaa7112b344a61107c816117ae565b6001600160a01b0382166110d25760405162461bcd60e51b815260206004820152601d60248201527f5661756c743a205a65726f206164647265737320666f722073796e7468000000604482015260640161050f565b6001600160a01b038216600081815260026020526040808220805460ff191660011790555133917fdb3823c581f8b10f079485fcda8dc823145456bf18ccf7606d21afdc5f53a04291a35050565b7fa49807205ce4d355092ef5a8a18f56e8913cf4a201fbe287825b095693c2177561114a816117ae565b6001600160a01b0383166111b45760405162461bcd60e51b815260206004820152602b60248201527f5661756c743a2046656520726563697069656e742063616e6e6f74206265207a60448201526a65726f206164647265737360a81b606482015260840161050f565b8160035410156112115760405162461bcd60e51b815260206004820152602260248201527f5661756c743a20496e73756666696369656e7420636f6c6c6563746564206665604482015261657360f01b606482015260840161050f565b6040516370a0823160e01b815230600482015282907f00000000000000000000000000000000000000000000000000000000000000006001600160a01b0316906370a0823190602401602060405180830381865afa158015611277573d6000803e3d6000fd5b505050506040513d601f19601f8201168201806040525081019061129b9190611e14565b101561130f5760405162461bcd60e51b815260206004820152603c60248201527f5661756c743a20496e73756666696369656e7420555344432062616c616e636560448201527f20696e205661756c7420666f7220666565207769746864726177616c00000000606482015260840161050f565b81600360008282546113219190611ee8565b909155505060405163a9059cbb60e01b81526001600160a01b038481166004830152602482018490527f0000000000000000000000000000000000000000000000000000000000000000169063a9059cbb906044016020604051808303816000875af1158015611395573d6000803e3d6000fd5b505050506040513d601f19601f820116820180604052508101906113b99190611e2d565b506040518281526001600160a01b0384169033907f5e110f8bc8a20b65dcc87f224bdf1cc039346e267118bae2739847f07321ffa890602001610fe3565b60008181526001602052604081206104cb90611836565b600082815260208190526040902060010154611429816117ae565b61072a83836117f0565b600080516020611f3b83398151915261144b816117ae565b816003600082825461145d9190611efb565b909155505060405182815233907f1e24569f7c3f504b5551f16f646a25d65ffa8e302d9b65c1506c24fd10e1ca959060200160405180910390a25050565b600080516020611f3b8339815191526114b3816117ae565b6001600160a01b0384166114d95760405162461bcd60e51b815260040161050f90611d6f565b600083116114f95760405162461bcd60e51b815260040161050f90611ddd565b81156115c6576040516340c10f1960e01b81526001600160a01b038581166004830152602482018590527f000000000000000000000000000000000000000000000000000000000000000016906340c10f1990604401600060405180830381600087803b15801561156957600080fd5b505af115801561157d573d6000803e3d6000fd5b50506040518581526001600160a01b03871692503391507f92b755fa8e77bd21bd6dacacaa86ce4f43d5ca8568a52a401dc983cbd51bf67e9060200160405180910390a361072a565b6040516370a0823160e01b815230600482015283907f00000000000000000000000000000000000000000000000000000000000000006001600160a01b0316906370a0823190602401602060405180830381865afa15801561162c573d6000803e3d6000fd5b505050506040513d601f19601f820116820180604052508101906116509190611e14565b10156116a85760405162461bcd60e51b815260206004820152602160248201527f5661756c743a20496e73756666696369656e74205553444320696e205661756c6044820152601d60fa1b606482015260840161050f565b60405163a9059cbb60e01b81526001600160a01b038581166004830152602482018590527f0000000000000000000000000000000000000000000000000000000000000000169063a9059cbb906044016020604051808303816000875af1158015611717573d6000803e3d6000fd5b505050506040513d601f19601f8201168201806040525081019061173b9190611e2d565b506040518381526001600160a01b0385169033907fa97afe0164ab246d52c034daf6c9025ccfc099b55129272a9bb868ec04669ea490602001610e59565b60006001600160e01b03198216637965db0b60e01b14806104cb57506301ffc9a760e01b6001600160e01b03198316146104cb565b6117b88133611840565b50565b6000806117c8848461187d565b905080156110085760008481526001602052604090206117e8908461190f565b509392505050565b6000806117fd8484611924565b905080156110085760008481526001602052604090206117e8908461198f565b600061100883836119a4565b60606000611008836119ce565b60006104cb825490565b61184a828261100f565b6118795760405163e2517d3f60e01b81526001600160a01b03821660048201526024810183905260440161050f565b5050565b6000611889838361100f565b611907576000838152602081815260408083206001600160a01b03861684529091529020805460ff191660011790556118bf3390565b6001600160a01b0316826001600160a01b0316847f2f8788117e7eff1d82e926ec794901d17c78024a50270940304540a733656f0d60405160405180910390a45060016104cb565b5060006104cb565b6000611008836001600160a01b038416611a2a565b6000611930838361100f565b15611907576000838152602081815260408083206001600160a01b0386168085529252808320805460ff1916905551339286917ff6391f5c32d9c69d2a47ea670b442974b53935d1edc7fd64eb21e047a839171b9190a45060016104cb565b6000611008836001600160a01b038416611a71565b60008260000182815481106119bb576119bb611f0e565b9060005260206000200154905092915050565b606081600001805480602002602001604051908101604052809291908181526020018280548015611a1e57602002820191906000526020600020905b815481526020019060010190808311611a0a575b50505050509050919050565b6000818152600183016020526040812054611907575081546001818101845560008481526020808220909301849055845484825282860190935260409020919091556104cb565b60008181526001830160205260408120548015611b5a576000611a95600183611ee8565b8554909150600090611aa990600190611ee8565b9050808214611b0e576000866000018281548110611ac957611ac9611f0e565b9060005260206000200154905080876000018481548110611aec57611aec611f0e565b6000918252602080832090910192909255918252600188019052604090208390555b8554869080611b1f57611b1f611f24565b6001900381819060005260206000200160009055905585600101600086815260200190815260200160002060009055600193505050506104cb565b60009150506104cb565b600060208284031215611b7657600080fd5b81356001600160e01b03198116811461100857600080fd5b600060208284031215611ba057600080fd5b5035919050565b80356001600160a01b0381168114611bbe57600080fd5b919050565b600080600060608486031215611bd857600080fd5b611be184611ba7565b9250611bef60208501611ba7565b929592945050506040919091013590565b60008060408385031215611c1357600080fd5b82359150611c2360208401611ba7565b90509250929050565b60008060008060808587031215611c4257600080fd5b611c4b85611ba7565b9350611c5960208601611ba7565b93969395505050506040820135916060013590565b600060208284031215611c8057600080fd5b61100882611ba7565b60008060408385031215611c9c57600080fd5b611ca583611ba7565b946020939093013593505050565b60008060408385031215611cc657600080fd5b50508035926020909101359150565b602080825282518282018190526000918401906040840190835b81811015611d165783516001600160a01b0316835260209384019390920191600101611cef565b509095945050505050565b80151581146117b857600080fd5b600080600060608486031215611d4457600080fd5b611d4d84611ba7565b9250602084013591506040840135611d6481611d21565b809150509250925092565b6020808252601a908201527f5661756c743a20496e76616c696420757365722077616c6c6574000000000000604082015260600190565b6020808252601b908201527f5661756c743a2053796e7468206e6f7420726567697374657265640000000000604082015260600190565b6020808252601e908201527f5661756c743a20416d6f756e74206d75737420626520706f7369746976650000604082015260600190565b600060208284031215611e2657600080fd5b5051919050565b600060208284031215611e3f57600080fd5b815161100881611d21565b60208082526025908201527f5661756c743a2073415353455420616d6f756e74206d75737420626520706f73604082015264697469766560d81b606082015260800190565b60208082526023908201527f5661756c743a205553444320616d6f756e74206d75737420626520706f73697460408201526269766560e81b606082015260800190565b634e487b7160e01b600052601160045260246000fd5b818103818111156104cb576104cb611ed2565b808201808211156104cb576104cb611ed2565b634e487b7160e01b600052603260045260246000fd5b634e487b7160e01b600052603160045260246000fdfe502d3d275257923b2bea6ea25d9631f12369fb532871f13eb85eb09dc0fb4842a2646970667358221220787dd4bec4d86040d5b0f0045b566eefef2f86e0d85d299e8007161ebc95caa464736f6c634300081c0033",
  "linkReferences": {},
  "deployedLinkReferences": {}
}