{
  "_format": "hh-sol-artifact-1",
  "contractName": "SynthERC20",
  "sourceName": "contracts/SynthERC20.sol",
  "abi": [
    {
      "inputs": [
        {
          "internalType": "string",
          "name": "name",
          "type": "string"
        },
        {
          "internalType": "string",
          "name": "symbol",
          "type": "string"
        },
        {
          "internalType": "uint8",
          "name": "decimals_",
          "type": "uint8"
        },
        {
          "internalType": "address",
          "name": "initialAdmin",
          "type": "address"
        },
        {
          "internalType": "address",
          "name": "minterAndBurner",
          "type": "address"
        }
      ],
      "stateMutability": "nonpayable",
      "type": "constructor"
    },
    {
      "inputs": [],
      "name": "AccessControlBadConfirmation",
      "type": "error"
    },
    {
      "inputs": [
        {
          "internalType": "address",
          "name": "account",
          "type": "address"
        },
        {
          "internalType": "bytes32",
          "name": "neededRole",
          "type": "bytes32"
        }
      ],
      "name": "AccessControlUnauthorizedAccount",
      "type": "error"
    },
    {
      "inputs": [
        {
          "internalType": "address",
          "name": "spender",
          "type": "address"
        },
        {
          "internalType": "uint256",
          "name": "allowance",
          "type": "uint256"
        },
        {
          "internalType": "uint256",
          "name": "needed",
          "type": "uint256"
        }
      ],
      "name": "ERC20InsufficientAllowance",
      "type": "error"
    },
    {
      "inputs": [
        {
          "internalType": "address",
          "name": "sender",
          "type": "address"
        },
        {
          "internalType": "uint256",
          "name": "balance",
          "type": "uint256"
        },
        {
          "internalType": "uint256",
          "name": "needed",
          "type": "uint256"
        }
      ],
      "name": "ERC20InsufficientBalance",
      "type": "error"
    },
    {
      "inputs": [
        {
          "internalType": "address",
          "name": "approver",
          "type": "address"
        }
      ],
      "name": "ERC20InvalidApprover",
      "type": "error"
    },
    {
      "inputs": [
        {
          "internalType": "address",
          "name": "receiver",
          "type": "address"
        }
      ],
      "name": "ERC20InvalidReceiver",
      "type": "error"
    },
    {
      "inputs": [
        {
          "internalType": "address",
          "name": "sender",
          "type": "address"
        }
      ],
      "name": "ERC20InvalidSender",
      "type": "error"
    },
    {
      "inputs": [
        {
          "internalType": "address",
          "name": "spender",
          "type": "address"
        }
      ],
      "name": "ERC20InvalidSpender",
      "type": "error"
    },
    {
      "anonymous": false,
      "inputs": [
        {
          "indexed": true,
          "internalType": "address",
          "name": "owner",
          "type": "address"
        },
        {
          "indexed": true,
          "internalType": "address",
          "name": "spender",
          "type": "address"
        },
        {
          "indexed": false,
          "internalType": "uint256",
          "name": "value",
          "type": "uint256"
        }
      ],
      "name": "Approval",
      "type": "event"
    },
    {
      "anonymous": false,
      "inputs": [
        {
          "indexed": true,
          "internalType": "bytes32",
          "name": "role",
          "type": "bytes32"
        },
        {
          "indexed": true,
          "internalType": "bytes32",
          "name": "previousAdminRole",
          "type": "bytes32"
        },
        {
          "indexed": true,
          "internalType": "bytes32",
          "name": "newAdminRole",
          "type": "bytes32"
        }
      ],
      "name": "RoleAdminChanged",
      "type": "event"
    },
    {
      "anonymous": false,
      "inputs": [
        {
          "indexed": true,
          "internalType": "bytes32",
          "name": "role",
          "type": "bytes32"
        },
        {
          "indexed": true,
          "internalType": "address",
          "name": "account",
          "type": "address"
        },
        {
          "indexed": true,
          "internalType": "address",
          "name": "sender",
          "type": "address"
        }
      ],
      "name": "RoleGranted",
      "type": "event"
    },
    {
      "anonymous": false,
      "inputs": [
        {
          "indexed": true,
          "internalType": "bytes32",
          "name": "role",
          "type": "bytes32"
        },
        {
          "indexed": true,
          "internalType": "address",
          "name": "account",
          "type": "address"
        },
        {
          "indexed": true,
          "internalType": "address",
          "name": "sender",
          "type": "address"
        }
      ],
      "name": "RoleRevoked",
      "type": "event"
    },
    {
      "anonymous": false,
      "inputs": [
        {
          "indexed": true,
          "internalType": "address",
          "name": "from",
          "type": "address"
        },
        {
          "indexed": true,
          "internalType": "address",
          "name": "to",
          "type": "address"
        },
        {
          "indexed": false,
          "internalType": "uint256",
          "name": "value",
          "type": "uint256"
        }
      ],
      "name": "Transfer",
      "type": "event"
    },
    {
      "inputs": [],
      "name": "BURNER_ROLE",
      "outputs": [
        {
          "internalType": "bytes32",
          "name": "",
          "type": "bytes32"
        }
      ],
      "stateMutability": "view",
      "type": "function"
    },
    {
      "inputs": [],
      "name": "DEFAULT_ADMIN_ROLE",
      "outputs": [
        {
          "internalType": "bytes32",
          "name": "",
          "type": "bytes32"
        }
      ],
      "stateMutability": "view",
      "type": "function"
    },
    {
      "inputs": [],
      "name": "MINTER_ROLE",
      "outputs": [
        {
          "internalType": "bytes32",
          "name": "",
          "type": "bytes32"
        }
      ],
      "stateMutability": "view",
      "type": "function"
    },
    {
      "inputs": [
        {
          "internalType": "address",
          "name": "owner",
          "type": "address"
        },
        {
          "internalType": "address",
          "name": "spender",
          "type": "address"
        }
      ],
      "name": "allowance",
      "outputs": [
        {
          "internalType": "uint256",
          "name": "",
          "type": "uint256"
        }
      ],
      "stateMutability": "view",
      "type": "function"
    },
    {
      "inputs": [
        {
          "internalType": "address",
          "name": "spender",
          "type": "address"
        },
        {
          "internalType": "uint256",
          "name": "value",
          "type": "uint256"
        }
      ],
      "name": "approve",
      "outputs": [
        {
          "internalType": "bool",
          "name": "",
          "type": "bool"
        }
      ],
      "stateMutability": "nonpayable",
      "type": "function"
    },
    {
      "inputs": [
        {
          "internalType": "address",
          "name": "account",
          "type": "address"
        }
      ],
      "name": "balanceOf",
      "outputs": [
        {
          "internalType": "uint256",
          "name": "",
          "type": "uint256"
        }
      ],
      "stateMutability": "view",
      "type": "function"
    },
    {
      "inputs": [
        {
          "internalType": "uint256",
          "name": "value",
          "type": "uint256"
        }
      ],
      "name": "burn",
      "outputs": [],
      "stateMutability": "nonpayable",
      "type": "function"
    },
    {
      "inputs": [
        {
          "internalType": "address",
          "name": "account",
          "type": "address"
        },
        {
          "internalType": "uint256",
          "name": "amount",
          "type": "uint256"
        }
      ],
      "name": "burnFrom",
      "outputs": [],
      "stateMutability": "nonpayable",
      "type": "function"
    },
    {
      "inputs": [],
      "name": "decimals",
      "outputs": [
        {
          "internalType": "uint8",
          "name": "",
          "type": "uint8"
        }
      ],
      "stateMutability": "view",
      "type": "function"
    },
    {
      "inputs": [
        {
          "internalType": "bytes32",
          "name": "role",
          "type": "bytes32"
        }
      ],
      "name": "getRoleAdmin",
      "outputs": [
        {
          "internalType": "bytes32",
          "name": "",
          "type": "bytes32"
        }
      ],
      "stateMutability": "view",
      "type": "function"
    },
    {
      "inputs": [
        {
          "internalType": "bytes32",
          "name": "role",
          "type": "bytes32"
        },
        {
          "internalType": "uint256",
          "name": "index",
          "type": "uint256"
        }
      ],
      "name": "getRoleMember",
      "outputs": [
        {
          "internalType": "address",
          "name": "",
          "type": "address"
        }
      ],
      "stateMutability": "view",
      "type": "function"
    },
    {
      "inputs": [
        {
          "internalType": "bytes32",
          "name": "role",
          "type": "bytes32"
        }
      ],
      "name": "getRoleMemberCount",
      "outputs": [
        {
          "internalType": "uint256",
          "name": "",
          "type": "uint256"
        }
      ],
      "stateMutability": "view",
      "type": "function"
    },
    {
      "inputs": [
        {
          "internalType": "bytes32",
          "name": "role",
          "type": "bytes32"
        }
      ],
      "name": "getRoleMembers",
      "outputs": [
        {
          "internalType": "address[]",
          "name": "",
          "type": "address[]"
        }
      ],
      "stateMutability": "view",
      "type": "function"
    },
    {
      "inputs": [
        {
          "internalType": "bytes32",
          "name": "role",
          "type": "bytes32"
        },
        {
          "internalType": "address",
          "name": "account",
          "type": "address"
        }
      ],
      "name": "grantRole",
      "outputs": [],
      "stateMutability": "nonpayable",
      "type": "function"
    },
    {
      "inputs": [
        {
          "internalType": "bytes32",
          "name": "role",
          "type": "bytes32"
        },
        {
          "internalType": "address",
          "name": "account",
          "type": "address"
        }
      ],
      "name": "hasRole",
      "outputs": [
        {
          "internalType": "bool",
          "name": "",
          "type": "bool"
        }
      ],
      "stateMutability": "view",
      "type": "function"
    },
    {
      "inputs": [
        {
          "internalType": "address",
          "name": "to",
          "type": "address"
        },
        {
          "internalType": "uint256",
          "name": "amount",
          "type": "uint256"
        }
      ],
      "name": "mint",
      "outputs": [],
      "stateMutability": "nonpayable",
      "type": "function"
    },
    {
      "inputs": [],
      "name": "name",
      "outputs": [
        {
          "internalType": "string",
          "name": "",
          "type": "string"
        }
      ],
      "stateMutability": "view",
      "type": "function"
    },
    {
      "inputs": [
        {
          "internalType": "bytes32",
          "name": "role",
          "type": "bytes32"
        },
        {
          "internalType": "address",
          "name": "callerConfirmation",
          "type": "address"
        }
      ],
      "name": "renounceRole",
      "outputs": [],
      "stateMutability": "nonpayable",
      "type": "function"
    },
    {
      "inputs": [
        {
          "internalType": "bytes32",
          "name": "role",
          "type": "bytes32"
        },
        {
          "internalType": "address",
          "name": "account",
          "type": "address"
        }
      ],
      "name": "revokeRole",
      "outputs": [],
      "stateMutability": "nonpayable",
      "type": "function"
    },
    {
      "inputs": [
        {
          "internalType": "bytes4",
          "name": "interfaceId",
          "type": "bytes4"
        }
      ],
      "name": "supportsInterface",
      "outputs": [
        {
          "internalType": "bool",
          "name": "",
          "type": "bool"
        }
      ],
      "stateMutability": "view",
      "type": "function"
    },
    {
      "inputs": [],
      "name": "symbol",
      "outputs": [
        {
          "internalType": "string",
          "name": "",
          "type": "string"
        }
      ],
      "stateMutability": "view",
      "type": "function"
    },
    {
      "inputs": [],
      "name": "totalSupply",
      "outputs": [
        {
          "internalType": "uint256",
          "name": "",
          "type": "uint256"
        }
      ],
      "stateMutability": "view",
      "type": "function"
    },
    {
      "inputs": [
        {
          "internalType": "address",
          "name": "to",
          "type": "address"
        },
        {
          "internalType": "uint256",
          "name": "value",
          "type": "uint256"
        }
      ],
      "name": "transfer",
      "outputs": [
        {
          "internalType": "bool",
          "name": "",
          "type": "bool"
        }
      ],
      "stateMutability": "nonpayable",
      "type": "function"
    },
    {
      "inputs": [
        {
          "internalType": "address",
          "name": "from",
          "type": "address"
        },
        {
          "internalType": "address",
          "name": "to",
          "type": "address"
        },
        {
          "internalType": "uint256",
          "name": "value",
          "type": "uint256"
        }
      ],
      "name": "transferFrom",
      "outputs": [
        {
          "internalType": "bool",
          "name": "",
          "type": "bool"
        }
      ],
      "stateMutability": "nonpayable",
      "type": "function"
    }
  ],
  "bytecode": "0x608060405234801561001057600080fd5b5060405161162738038061162783398101604081905261002f916103bd565b8484600361003d83826104e9565b50600461004a82826104e9565b5050506001600160a01b0382166100c15760405162461bcd60e51b815260206004820152603060248201527f53796e746845524332303a20496e697469616c2061646d696e2063616e6e6f7460448201526f206265207a65726f206164647265737360801b60648201526084015b60405180910390fd5b6001600160a01b0381166101305760405162461bcd60e51b815260206004820152603060248201527f53796e746845524332303a204d696e7465722f4275726e65722063616e6e6f7460448201526f206265207a65726f206164647265737360801b60648201526084016100b8565b6007805460ff191660ff851617905561014a6000836101ab565b506101757f9f2df0fed2c77648de5860a4cc508cd0818c85b8b8a1ab4ceeef8d981c8956a6826101ab565b506101a07f3c11d16cbaffd01df69ce1c404f6340ee057498f5f00246190ea54220576a848826101ab565b5050505050506105a7565b6000806101b884846101e3565b905080156101da5760008481526006602052604090206101d89084610291565b505b90505b92915050565b60008281526005602090815260408083206001600160a01b038516845290915281205460ff166102895760008381526005602090815260408083206001600160a01b03861684529091529020805460ff191660011790556102413390565b6001600160a01b0316826001600160a01b0316847f2f8788117e7eff1d82e926ec794901d17c78024a50270940304540a733656f0d60405160405180910390a45060016101dd565b5060006101dd565b60006101da836001600160a01b0384166000818152600183016020526040812054610289575081546001818101845560008481526020808220909301849055845484825282860190935260409020919091556101dd565b634e487b7160e01b600052604160045260246000fd5b600082601f83011261030f57600080fd5b81516001600160401b03811115610328576103286102e8565b604051601f8201601f19908116603f011681016001600160401b0381118282101715610356576103566102e8565b60405281815283820160200185101561036e57600080fd5b60005b8281101561038d57602081860181015183830182015201610371565b506000918101602001919091529392505050565b80516001600160a01b03811681146103b857600080fd5b919050565b600080600080600060a086880312156103d557600080fd5b85516001600160401b038111156103eb57600080fd5b6103f7888289016102fe565b602088015190965090506001600160401b0381111561041557600080fd5b610421888289016102fe565b945050604086015160ff8116811461043857600080fd5b9250610446606087016103a1565b9150610454608087016103a1565b90509295509295909350565b600181811c9082168061047457607f821691505b60208210810361049457634e487b7160e01b600052602260045260246000fd5b50919050565b601f8211156104e457806000526020600020601f840160051c810160208510156104c15750805b601f840160051c820191505b818110156104e157600081556001016104cd565b50505b505050565b81516001600160401b03811115610502576105026102e8565b610516816105108454610460565b8461049a565b6020601f82116001811461054a57600083156105325750848201515b600019600385901b1c1916600184901b1784556104e1565b600084815260208120601f198516915b8281101561057a578785015182556020948501946001909201910161055a565b50848210156105985786840151600019600387901b60f8161c191681555b50505050600190811b01905550565b611071806105b66000396000f3fe608060405234801561001057600080fd5b50600436106101585760003560e01c806370a08231116100c3578063a3246ad31161007c578063a3246ad314610309578063a9059cbb14610329578063ca15c8731461033c578063d53913931461034f578063d547741f14610376578063dd62ed3e1461038957600080fd5b806370a082311461027f57806379cc6790146102a85780639010d07c146102bb57806391d14854146102e657806395d89b41146102f9578063a217fddf1461030157600080fd5b8063282c51f311610115578063282c51f3146101f55780632f2ff15d1461021c578063313ce5671461023157806336568abe1461024657806340c10f191461025957806342966c681461026c57600080fd5b806301ffc9a71461015d57806306fdde0314610185578063095ea7b31461019a57806318160ddd146101ad57806323b872dd146101bf578063248a9ca3146101d2575b600080fd5b61017061016b366004610da6565b6103c2565b60405190151581526020015b60405180910390f35b61018d6103ed565b60405161017c9190610dd0565b6101706101a8366004610e3a565b61047f565b6002545b60405190815260200161017c565b6101706101cd366004610e64565b610497565b6101b16101e0366004610ea1565b60009081526005602052604090206001015490565b6101b17f3c11d16cbaffd01df69ce1c404f6340ee057498f5f00246190ea54220576a84881565b61022f61022a366004610eba565b6104bb565b005b60075460405160ff909116815260200161017c565b61022f610254366004610eba565b6104e6565b61022f610267366004610e3a565b61051e565b61022f61027a366004610ea1565b610552565b6101b161028d366004610ee6565b6001600160a01b031660009081526020819052604090205490565b61022f6102b6366004610e3a565b61055f565b6102ce6102c9366004610f01565b610593565b6040516001600160a01b03909116815260200161017c565b6101706102f4366004610eba565b6105b2565b61018d6105dd565b6101b1600081565b61031c610317366004610ea1565b6105ec565b60405161017c9190610f23565b610170610337366004610e3a565b610606565b6101b161034a366004610ea1565b610614565b6101b17f9f2df0fed2c77648de5860a4cc508cd0818c85b8b8a1ab4ceeef8d981c8956a681565b61022f610384366004610eba565b61062b565b6101b1610397366004610f6f565b6001600160a01b03918216600090815260016020908152604080832093909416825291909152205490565b60006001600160e01b03198216635a05180f60e01b14806103e757506103e782610650565b92915050565b6060600380546103fc90610f99565b80601f016020809104026020016040519081016040528092919081815260200182805461042890610f99565b80156104755780601f1061044a57610100808354040283529160200191610475565b820191906000526020600020905b81548152906001019060200180831161045857829003601f168201915b5050505050905090565b60003361048d818585610685565b5060019392505050565b6000336104a5858285610692565b6104b0858585610710565b506001949350505050565b6000828152600560205260409020600101546104d68161076f565b6104e08383610779565b50505050565b6001600160a01b038116331461050f5760405163334bd91960e11b815260040160405180910390fd5b61051982826107ae565b505050565b7f9f2df0fed2c77648de5860a4cc508cd0818c85b8b8a1ab4ceeef8d981c8956a66105488161076f565b61051983836107db565b61055c3382610815565b50565b7f3c11d16cbaffd01df69ce1c404f6340ee057498f5f00246190ea54220576a8486105898161076f565b610519838361084b565b60008281526006602052604081206105ab9083610860565b9392505050565b60009182526005602090815260408084206001600160a01b0393909316845291905290205460ff1690565b6060600480546103fc90610f99565b60008181526006602052604090206060906103e79061086c565b60003361048d818585610710565b60008181526006602052604081206103e790610879565b6000828152600560205260409020600101546106468161076f565b6104e083836107ae565b60006001600160e01b03198216637965db0b60e01b14806103e757506301ffc9a760e01b6001600160e01b03198316146103e7565b6105198383836001610883565b6001600160a01b038381166000908152600160209081526040808320938616835292905220546000198110156104e0578181101561070157604051637dc7a0d960e11b81526001600160a01b038416600482015260248101829052604481018390526064015b60405180910390fd5b6104e084848484036000610883565b6001600160a01b03831661073a57604051634b637e8f60e11b8152600060048201526024016106f8565b6001600160a01b0382166107645760405163ec442f0560e01b8152600060048201526024016106f8565b610519838383610958565b61055c8133610a82565b6000806107868484610abb565b905080156105ab5760008481526006602052604090206107a69084610b4f565b509392505050565b6000806107bb8484610b64565b905080156105ab5760008481526006602052604090206107a69084610bd1565b6001600160a01b0382166108055760405163ec442f0560e01b8152600060048201526024016106f8565b61081160008383610958565b5050565b6001600160a01b03821661083f57604051634b637e8f60e11b8152600060048201526024016106f8565b61081182600083610958565b610856823383610692565b6108118282610815565b60006105ab8383610be6565b606060006105ab83610c10565b60006103e7825490565b6001600160a01b0384166108ad5760405163e602df0560e01b8152600060048201526024016106f8565b6001600160a01b0383166108d757604051634a1406b160e11b8152600060048201526024016106f8565b6001600160a01b03808516600090815260016020908152604080832093871683529290522082905580156104e057826001600160a01b0316846001600160a01b03167f8c5be1e5ebec7d5bd14f71427d1e84f3dd0314c0f7b2291e5b200ac8c7c3b9258460405161094a91815260200190565b60405180910390a350505050565b6001600160a01b0383166109835780600260008282546109789190610fe9565b909155506109f59050565b6001600160a01b038316600090815260208190526040902054818110156109d65760405163391434e360e21b81526001600160a01b038516600482015260248101829052604481018390526064016106f8565b6001600160a01b03841660009081526020819052604090209082900390555b6001600160a01b038216610a1157600280548290039055610a30565b6001600160a01b03821660009081526020819052604090208054820190555b816001600160a01b0316836001600160a01b03167fddf252ad1be2c89b69c2b068fc378daa952ba7f163c4a11628f55a4df523b3ef83604051610a7591815260200190565b60405180910390a3505050565b610a8c82826105b2565b6108115760405163e2517d3f60e01b81526001600160a01b0382166004820152602481018390526044016106f8565b6000610ac783836105b2565b610b475760008381526005602090815260408083206001600160a01b03861684529091529020805460ff19166001179055610aff3390565b6001600160a01b0316826001600160a01b0316847f2f8788117e7eff1d82e926ec794901d17c78024a50270940304540a733656f0d60405160405180910390a45060016103e7565b5060006103e7565b60006105ab836001600160a01b038416610c6c565b6000610b7083836105b2565b15610b475760008381526005602090815260408083206001600160a01b0386168085529252808320805460ff1916905551339286917ff6391f5c32d9c69d2a47ea670b442974b53935d1edc7fd64eb21e047a839171b9190a45060016103e7565b60006105ab836001600160a01b038416610cb3565b6000826000018281548110610bfd57610bfd610ffc565b9060005260206000200154905092915050565b606081600001805480602002602001604051908101604052809291908181526020018280548015610c6057602002820191906000526020600020905b815481526020019060010190808311610c4c575b50505050509050919050565b6000818152600183016020526040812054610b47575081546001818101845560008481526020808220909301849055845484825282860190935260409020919091556103e7565b60008181526001830160205260408120548015610d9c576000610cd7600183611012565b8554909150600090610ceb90600190611012565b9050808214610d50576000866000018281548110610d0b57610d0b610ffc565b9060005260206000200154905080876000018481548110610d2e57610d2e610ffc565b6000918252602080832090910192909255918252600188019052604090208390555b8554869080610d6157610d61611025565b6001900381819060005260206000200160009055905585600101600086815260200190815260200160002060009055600193505050506103e7565b60009150506103e7565b600060208284031215610db857600080fd5b81356001600160e01b0319811681146105ab57600080fd5b602081526000825180602084015260005b81811015610dfe5760208186018101516040868401015201610de1565b506000604082850101526040601f19601f83011684010191505092915050565b80356001600160a01b0381168114610e3557600080fd5b919050565b60008060408385031215610e4d57600080fd5b610e5683610e1e565b946020939093013593505050565b600080600060608486031215610e7957600080fd5b610e8284610e1e565b9250610e9060208501610e1e565b929592945050506040919091013590565b600060208284031215610eb357600080fd5b5035919050565b60008060408385031215610ecd57600080fd5b82359150610edd60208401610e1e565b90509250929050565b600060208284031215610ef857600080fd5b6105ab82610e1e565b60008060408385031215610f1457600080fd5b50508035926020909101359150565b602080825282518282018190526000918401906040840190835b81811015610f645783516001600160a01b0316835260209384019390920191600101610f3d565b509095945050505050565b60008060408385031215610f8257600080fd5b610f8b83610e1e565b9150610edd60208401610e1e565b600181811c90821680610fad57607f821691505b602082108103610fcd57634e487b7160e01b600052602260045260246000fd5b50919050565b634e487b7160e01b600052601160045260246000fd5b808201808211156103e7576103e7610fd3565b634e487b7160e01b600052603260045260246000fd5b818103818111156103e7576103e7610fd3565b634e487b7160e01b600052603160045260246000fdfea2646970667358221220d355b8f192c5d82ea003a2bd0ea99dd16d5c2e7b93b60cf8d1aa85b68840a4d564736f6c634300081c0033",
  "linkReferences": {},
  "deployedLinkReferences": {}
}